{
  "_format": "hh-sol-artifact-1",
  "contractName": "AirdropOne",
  "sourceName": "contracts/AirdropOne.sol",
  "abi": [
    {
      "inputs": [
        {
          "internalType": "contract Access",
          "name": "_access",
          "type": "address"
        }
      ],
      "stateMutability": "nonpayable",
      "type": "constructor"
    },
    {
      "anonymous": false,
      "inputs": [
        {
          "indexed": false,
          "internalType": "address",
          "name": "user",
          "type": "address"
        }
      ],
      "name": "Airdrop",
      "type": "event"
    },
    {
      "inputs": [],
      "name": "access",
      "outputs": [
        {
          "internalType": "contract Access",
          "name": "",
          "type": "address"
        }
      ],
      "stateMutability": "view",
      "type": "function"
    },
    {
      "inputs": [
        {
          "internalType": "address",
          "name": "user",
          "type": "address"
        }
      ],
      "name": "airdrop",
      "outputs": [],
      "stateMutability": "nonpayable",
      "type": "function"
    },
    {
      "inputs": [
        {
          "internalType": "address",
          "name": "",
          "type": "address"
        }
      ],
      "name": "received",
      "outputs": [
        {
          "internalType": "bool",
          "name": "",
          "type": "bool"
        }
      ],
      "stateMutability": "view",
      "type": "function"
    },
    {
      "inputs": [
        {
          "internalType": "uint256",
          "name": "amount",
          "type": "uint256"
        }
      ],
      "name": "withdraw",
      "outputs": [],
      "stateMutability": "nonpayable",
      "type": "function"
    },
    {
      "stateMutability": "payable",
      "type": "receive"
    }
  ],
  "bytecode": "0x608060405234801561001057600080fd5b5060405161050838038061050883398101604081905261002f91610054565b600080546001600160a01b0319166001600160a01b0392909216919091179055610084565b60006020828403121561006657600080fd5b81516001600160a01b038116811461007d57600080fd5b9392505050565b610475806100936000396000f3fe6080604052600436106100435760003560e01c806321860a051461004f5780632e1a7d4d1461007157806371907f1714610091578063df0cb934146100c757600080fd5b3661004a57005b600080fd5b34801561005b57600080fd5b5061006f61006a3660046103af565b610107565b005b34801561007d57600080fd5b5061006f61008c3660046103d3565b6102b1565b34801561009d57600080fd5b506000546100b1906001600160a01b031681565b6040516100be91906103ec565b60405180910390f35b3480156100d357600080fd5b506100f76100e23660046103af565b60016020526000908152604090205460ff1681565b60405190151581526020016100be565b60008054906101000a90046001600160a01b03166001600160a01b031663ca19e44f6040518163ffffffff1660e01b815260040160206040518083038186803b15801561015357600080fd5b505afa158015610167573d6000803e3d6000fd5b505050506040513d601f19601f8201168201806040525081019061018b9190610400565b6001600160a01b0316336001600160a01b0316146101df5760405162461bcd60e51b815260206004820152600c60248201526b1bdb9b1e515b1a5d1954185960a21b60448201526064015b60405180910390fd5b6001600160a01b03811660009081526001602052604090205460ff16156102035750565b670de0b6b3a76400004710156102165750565b6040516001600160a01b03821690600090670de0b6b3a76400009082818181858883f1935050505015801561024f573d6000803e3d6000fd5b506001600160a01b038116600090815260016020819052604091829020805460ff19169091179055517f84b8d6a5d5e1034bc8734d8fff0d20ab52702355d302ba88515a311d8ce0dd7d906102a59083906103ec565b60405180910390a15b50565b600054604051630935e01b60e21b81526001600160a01b03909116906324d7806c906102e19033906004016103ec565b60206040518083038186803b1580156102f957600080fd5b505afa15801561030d573d6000803e3d6000fd5b505050506040513d601f19601f82011682018060405250810190610331919061041d565b6103695760405162461bcd60e51b815260206004820152600960248201526837b7363ca0b236b4b760b91b60448201526064016101d6565b604051339082156108fc029083906000818181858888f19350505050158015610396573d6000803e3d6000fd5b5050565b6001600160a01b03811681146102ae57600080fd5b6000602082840312156103c157600080fd5b81356103cc8161039a565b9392505050565b6000602082840312156103e557600080fd5b5035919050565b6001600160a01b0391909116815260200190565b60006020828403121561041257600080fd5b81516103cc8161039a565b60006020828403121561042f57600080fd5b815180151581146103cc57600080fdfea264697066735822122078bd86d8e0799f843a61c620f8c7415faa7c5f8bd707cf4dbca10f76be1fa31864736f6c63430008080033",
  "linkReferences": {},
  "deployedLinkReferences": {}
}