{
  "_format": "hh-sol-artifact-1",
  "contractName": "Bucket",
  "sourceName": "contracts/Bucket.sol",
  "abi": [
    {
      "inputs": [
        {
          "internalType": "contract Epoch",
          "name": "_epochC",
          "type": "address"
        },
        {
          "internalType": "contract RaffleTicket",
          "name": "_raffleTicket",
          "type": "address"
        },
        {
          "internalType": "address",
          "name": "_owner",
          "type": "address"
        },
        {
          "internalType": "uint256",
          "name": "_startEpoch",
          "type": "uint256"
        },
        {
          "internalType": "uint256",
          "name": "_round",
          "type": "uint256"
        },
        {
          "internalType": "uint256",
          "name": "_numPerRound",
          "type": "uint256"
        },
        {
          "internalType": "string",
          "name": "_uri",
          "type": "string"
        }
      ],
      "stateMutability": "nonpayable",
      "type": "constructor"
    },
    {
      "anonymous": false,
      "inputs": [
        {
          "indexed": false,
          "internalType": "address",
          "name": "user",
          "type": "address"
        },
        {
          "indexed": false,
          "internalType": "uint256",
          "name": "round",
          "type": "uint256"
        },
        {
          "indexed": false,
          "internalType": "uint256",
          "name": "epoch",
          "type": "uint256"
        },
        {
          "indexed": false,
          "internalType": "uint256",
          "name": "amount",
          "type": "uint256"
        }
      ],
      "name": "AddTickets",
      "type": "event"
    },
    {
      "anonymous": false,
      "inputs": [
        {
          "indexed": false,
          "internalType": "address",
          "name": "operator",
          "type": "address"
        },
        {
          "indexed": false,
          "internalType": "uint256",
          "name": "round",
          "type": "uint256"
        },
        {
          "indexed": false,
          "internalType": "uint256",
          "name": "rnd",
          "type": "uint256"
        }
      ],
      "name": "Raffle",
      "type": "event"
    },
    {
      "inputs": [
        {
          "internalType": "uint256",
          "name": "tokenId",
          "type": "uint256"
        },
        {
          "internalType": "uint256",
          "name": "_round",
          "type": "uint256"
        }
      ],
      "name": "acceptTicket",
      "outputs": [
        {
          "internalType": "bool",
          "name": "",
          "type": "bool"
        }
      ],
      "stateMutability": "view",
      "type": "function"
    },
    {
      "inputs": [
        {
          "internalType": "uint256",
          "name": "epoch",
          "type": "uint256"
        },
        {
          "internalType": "uint256",
          "name": "amount",
          "type": "uint256"
        }
      ],
      "name": "addTickets",
      "outputs": [],
      "stateMutability": "nonpayable",
      "type": "function"
    },
    {
      "inputs": [],
      "name": "curRound",
      "outputs": [
        {
          "internalType": "uint256",
          "name": "",
          "type": "uint256"
        }
      ],
      "stateMutability": "view",
      "type": "function"
    },
    {
      "inputs": [],
      "name": "epochC",
      "outputs": [
        {
          "internalType": "contract Epoch",
          "name": "",
          "type": "address"
        }
      ],
      "stateMutability": "view",
      "type": "function"
    },
    {
      "inputs": [],
      "name": "numPerRound",
      "outputs": [
        {
          "internalType": "uint256",
          "name": "",
          "type": "uint256"
        }
      ],
      "stateMutability": "view",
      "type": "function"
    },
    {
      "inputs": [],
      "name": "owner",
      "outputs": [
        {
          "internalType": "address",
          "name": "",
          "type": "address"
        }
      ],
      "stateMutability": "view",
      "type": "function"
    },
    {
      "inputs": [
        {
          "internalType": "uint256",
          "name": "_round",
          "type": "uint256"
        }
      ],
      "name": "raffle",
      "outputs": [],
      "stateMutability": "nonpayable",
      "type": "function"
    },
    {
      "inputs": [],
      "name": "raffleTicket",
      "outputs": [
        {
          "internalType": "contract RaffleTicket",
          "name": "",
          "type": "address"
        }
      ],
      "stateMutability": "view",
      "type": "function"
    },
    {
      "inputs": [],
      "name": "round",
      "outputs": [
        {
          "internalType": "uint256",
          "name": "",
          "type": "uint256"
        }
      ],
      "stateMutability": "view",
      "type": "function"
    },
    {
      "inputs": [
        {
          "internalType": "string",
          "name": "_uri",
          "type": "string"
        }
      ],
      "name": "setURI",
      "outputs": [],
      "stateMutability": "nonpayable",
      "type": "function"
    },
    {
      "inputs": [],
      "name": "startEpoch",
      "outputs": [
        {
          "internalType": "uint256",
          "name": "",
          "type": "uint256"
        }
      ],
      "stateMutability": "view",
      "type": "function"
    },
    {
      "inputs": [],
      "name": "status",
      "outputs": [
        {
          "internalType": "enum Bucket.Status",
          "name": "",
          "type": "uint8"
        }
      ],
      "stateMutability": "view",
      "type": "function"
    },
    {
      "inputs": [],
      "name": "uri",
      "outputs": [
        {
          "internalType": "string",
          "name": "",
          "type": "string"
        }
      ],
      "stateMutability": "view",
      "type": "function"
    },
    {
      "inputs": [
        {
          "internalType": "uint256",
          "name": "_round",
          "type": "uint256"
        }
      ],
      "name": "whitelist",
      "outputs": [
        {
          "internalType": "address[]",
          "name": "results",
          "type": "address[]"
        }
      ],
      "stateMutability": "view",
      "type": "function"
    },
    {
      "inputs": [
        {
          "internalType": "uint256",
          "name": "_round",
          "type": "uint256"
        },
        {
          "internalType": "uint256",
          "name": "i",
          "type": "uint256"
        }
      ],
      "name": "whitelistAt",
      "outputs": [
        {
          "internalType": "address",
          "name": "",
          "type": "address"
        }
      ],
      "stateMutability": "view",
      "type": "function"
    }
  ],
  "bytecode": "0x60806040523480156200001157600080fd5b50604051620015883803806200158883398101604081905262000034916200024f565b600180546001600160a01b03808a166001600160a01b03199283168117909355600580548a831690841617905560008054918916919092161781556040805163900cf0cf60e01b8152905191929163900cf0cf91600480820192602092909190829003018186803b158015620000a957600080fd5b505afa158015620000be573d6000803e3d6000fd5b505050506040513d601f19601f82011682018060405250810190620000e491906200038d565b90508481108015620000f65750600084115b620001475760405162461bcd60e51b815260206004820152601360248201527f696e76616c69642065706f63682072616e676500000000000000000000000000604482015260640160405180910390fd5b60028590556003849055600483905581516200016b9060069060208501906200017a565b505050505050505050620003e4565b8280546200018890620003a7565b90600052602060002090601f016020900481019282620001ac5760008555620001f7565b82601f10620001c757805160ff1916838001178555620001f7565b82800160010185558215620001f7579182015b82811115620001f7578251825591602001919060010190620001da565b506200020592915062000209565b5090565b5b808211156200020557600081556001016200020a565b6001600160a01b03811681146200023657600080fd5b50565b634e487b7160e01b600052604160045260246000fd5b600080600080600080600060e0888a0312156200026b57600080fd5b8751620002788162000220565b809750506020808901516200028d8162000220565b60408a0151909750620002a08162000220565b60608a015160808b015160a08c015160c08d0151939950919750955093506001600160401b0380821115620002d457600080fd5b818b0191508b601f830112620002e957600080fd5b815181811115620002fe57620002fe62000239565b604051601f8201601f19908116603f0116810190838211818310171562000329576200032962000239565b816040528281528e868487010111156200034257600080fd5b600093505b8284101562000366578484018601518185018701529285019262000347565b82841115620003785760008684830101525b80965050505050505092959891949750929550565b600060208284031215620003a057600080fd5b5051919050565b600181811c90821680620003bc57607f821691505b60208210811415620003de57634e487b7160e01b600052602260045260246000fd5b50919050565b61119480620003f46000396000f3fe608060405234801561001057600080fd5b50600436106100c55760003560e01c806302fe5305146100ca578063146ca531146100df578063200d2ed2146100fb5780634b6b164b146101105780635bdc2fab146101195780637ebd1b301461012c5780638da5cb5b1461014c5780638ee0103a14610177578063a2c8b1771461018a578063b3f7584314610193578063c7688cf81461019b578063cb5a872d146101ae578063ccf010d8146101c1578063eac989f8146101d4578063ff3bd0eb146101e9575b600080fd5b6100dd6100d8366004610e45565b61020c565b005b6100e860035481565b6040519081526020015b60405180910390f35b610103610268565b6040516100f29190610ecc565b6100e860045481565b6100dd610127366004610ef4565b610326565b61013f61013a366004610f16565b610600565b6040516100f29190610f2f565b60005461015f906001600160a01b031681565b6040516001600160a01b0390911681526020016100f2565b61015f610185366004610ef4565b6106ee565b6100e860025481565b6100e86107c6565b6100dd6101a9366004610f16565b610865565b60015461015f906001600160a01b031681565b60055461015f906001600160a01b031681565b6101dc610956565b6040516100f29190610fac565b6101fc6101f7366004610ef4565b6109e4565b60405190151581526020016100f2565b6000546001600160a01b031633146102575760405162461bcd60e51b815260206004820152600960248201526837b7363ca7bbb732b960b91b60448201526064015b60405180910390fd5b61026360068383610dac565b505050565b600080600160009054906101000a90046001600160a01b03166001600160a01b031663900cf0cf6040518163ffffffff1660e01b815260040160206040518083038186803b1580156102b957600080fd5b505afa1580156102cd573d6000803e3d6000fd5b505050506040513d601f19601f820116820180604052508101906102f19190610fdf565b905060025481101561030557600091505090565b6003546103106107c6565b101561031e57600191505090565b600291505090565b6001610330610268565b600281111561034157610341610eb6565b146103805760405162461bcd60e51b815260206004820152600f60248201526e313ab1b5b2ba103737ba1037b832b760891b604482015260640161024e565b600061038a6107c6565b905061039683826109e4565b6103d45760405162461bcd60e51b815260206004820152600f60248201526e696e76616c6964207469636b65747360881b604482015260640161024e565b600554604051637a94c56560e11b81526001600160a01b039091169063f5298aca9061040890339087908790600401610ff8565b600060405180830381600087803b15801561042257600080fd5b505af1158015610436573d6000803e3d6000fd5b50505060008281526007602052604090206002810180549192509015801590610498575080543390829061046c9060019061102f565b8154811061047c5761047c611046565b60009182526020909120600290910201546001600160a01b0316145b156104ea578054849082906104af9060019061102f565b815481106104bf576104bf611046565b906000526020600020906002020160010160008282546104df919061105c565b9091555061058b9050565b80546000901561052957815482906105049060019061102f565b8154811061051457610514611046565b90600052602060002090600202016001015490505b60408051808201909152338152829060208101610546888561105c565b90528154600180820184556000938452602093849020835160029093020180546001600160a01b0319166001600160a01b039093169290921782559190920151910155505b336000908152600183016020526040812080548692906105ac90849061105c565b90915550506040805133815260208101859052908101869052606081018590527f87d503c426857d99ea9bd93fedc66f2533a1dbb759f1765f60652e499d6527889060800160405180910390a15050505050565b600081815260076020526040902080546060919061064e5760405162461bcd60e51b815260206004820152600b60248201526a1b9bdd081c9859999b195960aa1b604482015260640161024e565b6004546001600160401b0381111561066857610668611074565b604051908082528060200260200182016040528015610691578160200160208202803683370190505b50915060005b6004548110156106e7576106ab84826106ee565b8382815181106106bd576106bd611046565b6001600160a01b0390921660209283029190910190910152806106df8161108a565b915050610697565b5050919050565b6000828152600760205260408120600281018054839082906107129060019061102f565b8154811061072257610722611046565b9060005260206000209060020201600101549050600061076d846000015487604080516020808201949094528082019290925280518083038201815260609092019052805191012090565b9050600061077b83836110bb565b905060006107898583610b21565b905084818154811061079d5761079d611046565b60009182526020909120600290910201546001600160a01b031696505050505050505b92915050565b600080600160009054906101000a90046001600160a01b03166001600160a01b031663900cf0cf6040518163ffffffff1660e01b815260040160206040518083038186803b15801561081757600080fd5b505afa15801561082b573d6000803e3d6000fd5b505050506040513d601f19601f8201168201806040525081019061084f9190610fdf565b90506002548161085f919061102f565b91505090565b600061086f6107c6565b90506003548210801561088157508181115b6108bd5760405162461bcd60e51b815260206004820152600d60248201526c1a5b9d985b1a59081c9bdd5b99609a1b604482015260640161024e565b600082815260076020526040902080541561090c5760405162461bcd60e51b815260206004820152600f60248201526e185b1c9958591e481c9859999b1959608a1b604482015260640161024e565b610914610b34565b8082556040517fcd042e772ef4bf18e29cc6a59288ef170b8597337e487b3fc01ff3acf855a15f916109499133918791610ff8565b60405180910390a1505050565b60068054610963906110cf565b80601f016020809104026020016040519081016040528092919081815260200182805461098f906110cf565b80156109dc5780601f106109b1576101008083540402835291602001916109dc565b820191906000526020600020905b8154815290600101906020018083116109bf57829003601f168201915b505050505081565b600554604051630393ce0360e21b815260048101849052600091829182916001600160a01b031690630e4f380c90602401604080518083038186803b158015610a2c57600080fd5b505afa158015610a40573d6000803e3d6000fd5b505050506040513d601f19601f82011682018060405250810190610a64919061110a565b91509150600084600254610a78919061105c565b9050600560009054906101000a90046001600160a01b03166001600160a01b031663afae87766040518163ffffffff1660e01b815260040160206040518083038186803b158015610ac857600080fd5b505afa158015610adc573d6000803e3d6000fd5b505050506040513d601f19601f82011682018060405250810190610b009190610fdf565b861480610b1757508281101580610b175750818111155b9695505050505050565b6000610b2d8383610b81565b9392505050565b600046636357d2e0811480610b4c5750806363564c40145b610b795760408051426020820152016040516020818303038152906040528051906020012060001c61085f565b61085f610c0c565b8154600090610b92575060006107c0565b82546000905b80821015610c04576000610baf600284841861112e565b610bbb9084841661105c565b905084868281548110610bd057610bd0611046565b9060005260206000209060020201600101541115610bf057809150610bfe565b610bfb81600161105c565b92505b50610b98565b509392505050565b600080610c5e60405180602001604052806000815250604051806040016040528060098152602001683b39331032b93937b960b91b81525060ff6001600160a01b0316610ca89092919063ffffffff16565b90508051602014610c9f5760405162461bcd60e51b815260206004820152600b60248201526a34b73b30b634b2103b393360a91b604482015260640161024e565b60200151919050565b60606001600160a01b0384163b610d0d5760405162461bcd60e51b8152602060048201526024808201527f416464726573733a207374617469632063616c6c20746f206e6f6e2d636f6e746044820152631c9858dd60e21b606482015260840161024e565b600080856001600160a01b031685604051610d289190611142565b600060405180830381855afa9150503d8060008114610d63576040519150601f19603f3d011682016040523d82523d6000602084013e610d68565b606091505b5091509150610b1782828660608315610d82575081610b2d565b825115610d925782518084602001fd5b8160405162461bcd60e51b815260040161024e9190610fac565b828054610db8906110cf565b90600052602060002090601f016020900481019282610dda5760008555610e20565b82601f10610df35782800160ff19823516178555610e20565b82800160010185558215610e20579182015b82811115610e20578235825591602001919060010190610e05565b50610e2c929150610e30565b5090565b5b80821115610e2c5760008155600101610e31565b60008060208385031215610e5857600080fd5b82356001600160401b0380821115610e6f57600080fd5b818501915085601f830112610e8357600080fd5b813581811115610e9257600080fd5b866020828501011115610ea457600080fd5b60209290920196919550909350505050565b634e487b7160e01b600052602160045260246000fd5b6020810160038310610eee57634e487b7160e01b600052602160045260246000fd5b91905290565b60008060408385031215610f0757600080fd5b50508035926020909101359150565b600060208284031215610f2857600080fd5b5035919050565b6020808252825182820181905260009190848201906040850190845b81811015610f705783516001600160a01b031683529284019291840191600101610f4b565b50909695505050505050565b60005b83811015610f97578181015183820152602001610f7f565b83811115610fa6576000848401525b50505050565b6020815260008251806020840152610fcb816040850160208701610f7c565b601f01601f19169190910160400192915050565b600060208284031215610ff157600080fd5b5051919050565b6001600160a01b039390931683526020830191909152604082015260600190565b634e487b7160e01b600052601160045260246000fd5b60008282101561104157611041611019565b500390565b634e487b7160e01b600052603260045260246000fd5b6000821982111561106f5761106f611019565b500190565b634e487b7160e01b600052604160045260246000fd5b600060001982141561109e5761109e611019565b5060010190565b634e487b7160e01b600052601260045260246000fd5b6000826110ca576110ca6110a5565b500690565b600181811c908216806110e357607f821691505b6020821081141561110457634e487b7160e01b600052602260045260246000fd5b50919050565b6000806040838503121561111d57600080fd5b505080516020909101519092909150565b60008261113d5761113d6110a5565b500490565b60008251611154818460208701610f7c565b919091019291505056fea2646970667358221220beef051b1b5790322c73b8a9e104c202fc7476bb04644c45db3c5e50727f4f6164736f6c63430008080033",
  "linkReferences": {},
  "deployedLinkReferences": {}
}