{
  "_format": "hh-sol-artifact-1",
  "contractName": "BucketFactory",
  "sourceName": "contracts/BucketFactory.sol",
  "abi": [
    {
      "anonymous": false,
      "inputs": [
        {
          "indexed": false,
          "internalType": "address",
          "name": "creator",
          "type": "address"
        },
        {
          "indexed": false,
          "internalType": "address",
          "name": "bucket",
          "type": "address"
        },
        {
          "indexed": false,
          "internalType": "uint256",
          "name": "startEpoch",
          "type": "uint256"
        },
        {
          "indexed": false,
          "internalType": "uint256",
          "name": "endEpoch",
          "type": "uint256"
        },
        {
          "indexed": false,
          "internalType": "uint256",
          "name": "numPerRound",
          "type": "uint256"
        },
        {
          "indexed": false,
          "internalType": "string",
          "name": "uri",
          "type": "string"
        }
      ],
      "name": "Create",
      "type": "event"
    },
    {
      "inputs": [],
      "name": "access",
      "outputs": [
        {
          "internalType": "contract Access",
          "name": "",
          "type": "address"
        }
      ],
      "stateMutability": "view",
      "type": "function"
    },
    {
      "inputs": [
        {
          "internalType": "uint256",
          "name": "",
          "type": "uint256"
        }
      ],
      "name": "allBuckets",
      "outputs": [
        {
          "internalType": "contract Bucket",
          "name": "",
          "type": "address"
        }
      ],
      "stateMutability": "view",
      "type": "function"
    },
    {
      "inputs": [
        {
          "internalType": "address",
          "name": "_owner",
          "type": "address"
        },
        {
          "internalType": "uint256",
          "name": "startEpoch",
          "type": "uint256"
        },
        {
          "internalType": "uint256",
          "name": "endEpoch",
          "type": "uint256"
        },
        {
          "internalType": "uint256",
          "name": "numPerRound",
          "type": "uint256"
        },
        {
          "internalType": "string",
          "name": "uri",
          "type": "string"
        }
      ],
      "name": "create",
      "outputs": [
        {
          "internalType": "contract Bucket",
          "name": "",
          "type": "address"
        }
      ],
      "stateMutability": "nonpayable",
      "type": "function"
    },
    {
      "inputs": [],
      "name": "epochC",
      "outputs": [
        {
          "internalType": "contract Epoch",
          "name": "",
          "type": "address"
        }
      ],
      "stateMutability": "view",
      "type": "function"
    },
    {
      "inputs": [
        {
          "internalType": "contract Access",
          "name": "_access",
          "type": "address"
        },
        {
          "internalType": "contract Epoch",
          "name": "_epochC",
          "type": "address"
        },
        {
          "internalType": "contract RaffleTicket",
          "name": "_raffleTicket",
          "type": "address"
        }
      ],
      "name": "initialize",
      "outputs": [],
      "stateMutability": "nonpayable",
      "type": "function"
    },
    {
      "inputs": [],
      "name": "raffleTicket",
      "outputs": [
        {
          "internalType": "contract RaffleTicket",
          "name": "",
          "type": "address"
        }
      ],
      "stateMutability": "view",
      "type": "function"
    }
  ],
  "bytecode": "0x608060405234801561001057600080fd5b50611b80806100206000396000f3fe60806040523480156200001157600080fd5b50600436106200006a5760003560e01c806371907f17146200006f57806396c551f214620000a5578063c0c53b8b14620000bc578063c81a864c14620000d5578063cb5a872d14620000ec578063ccf010d81462000100575b600080fd5b60005462000089906201000090046001600160a01b031681565b6040516001600160a01b03909116815260200160405180910390f35b62000089620000b636600462000441565b62000114565b620000d3620000cd36600462000474565b6200013f565b005b62000089620000e6366004620004c6565b62000256565b60015462000089906001600160a01b031681565b60025462000089906001600160a01b031681565b600381815481106200012557600080fd5b6000918252602090912001546001600160a01b0316905081565b600054610100900460ff166200015c5760005460ff161562000160565b303b155b620001c95760405162461bcd60e51b815260206004820152602e60248201527f496e697469616c697a61626c653a20636f6e747261637420697320616c72656160448201526d191e481a5b9a5d1a585b1a5e995960921b60648201526084015b60405180910390fd5b600054610100900460ff16158015620001ec576000805461ffff19166101011790555b600080546001600160a01b03808716620100000262010000600160b01b031990921691909117909155600180548583166001600160a01b0319918216179091556002805492851692909116919091179055801562000250576000805461ff00191690555b50505050565b60008060029054906101000a90046001600160a01b03166001600160a01b031663ca19e44f6040518163ffffffff1660e01b815260040160206040518083038186803b158015620002a657600080fd5b505afa158015620002bb573d6000803e3d6000fd5b505050506040513d601f19601f82011682018060405250810190620002e191906200056d565b6001600160a01b0316336001600160a01b031614620003325760405162461bcd60e51b815260206004820152600c60248201526b1bdb9b1e515b1a5d1954185960a21b6044820152606401620001c0565b6001546002546040516000926001600160a01b039081169216908a908a908a908a908a908a90620003639062000433565b62000376989796959493929190620005bd565b604051809103906000f08015801562000393573d6000803e3d6000fd5b50600380546001810182556000919091527fc2575a0e9e593c00f959f8c92f12db2869c3395a3b0502d05e2516446f71f85b0180546001600160a01b0319166001600160a01b0383161790556040519091507fe20f96e44e4d07cf97ed4baad59f575939cc3bc3c332aa44bf92aae3301ad9429062000420908a9084908b908b908b908b908b9062000613565b60405180910390a1979650505050505050565b6114ea806200066183390190565b6000602082840312156200045457600080fd5b5035919050565b6001600160a01b03811681146200047157600080fd5b50565b6000806000606084860312156200048a57600080fd5b833562000497816200045b565b92506020840135620004a9816200045b565b91506040840135620004bb816200045b565b809150509250925092565b60008060008060008060a08789031215620004e057600080fd5b8635620004ed816200045b565b955060208701359450604087013593506060870135925060808701356001600160401b03808211156200051f57600080fd5b818901915089601f8301126200053457600080fd5b8135818111156200054457600080fd5b8a60208285010111156200055757600080fd5b6020830194508093505050509295509295509295565b6000602082840312156200058057600080fd5b81516200058d816200045b565b9392505050565b81835281816020850137506000828201602090810191909152601f909101601f19169091010190565b600060018060a01b03808b168352808a1660208401528089166040840152508660608301528560808301528460a083015260e060c08301526200060560e08301848662000594565b9a9950505050505050505050565b600060018060a01b03808a16835280891660208401525086604083015285606083015284608083015260c060a08301526200065360c08301848662000594565b999850505050505050505056fe60806040523480156200001157600080fd5b50604051620014ea380380620014ea83398101604081905262000034916200024f565b600180546001600160a01b03808a166001600160a01b03199283168117909355600580548a831690841617905560008054918916919092161781556040805163900cf0cf60e01b8152905191929163900cf0cf91600480820192602092909190829003018186803b158015620000a957600080fd5b505afa158015620000be573d6000803e3d6000fd5b505050506040513d601f19601f82011682018060405250810190620000e491906200038d565b90508481108015620000f65750848410155b620001475760405162461bcd60e51b815260206004820152601360248201527f696e76616c69642065706f63682072616e676500000000000000000000000000604482015260640160405180910390fd5b60028590556003849055600483905581516200016b9060069060208501906200017a565b505050505050505050620003e4565b8280546200018890620003a7565b90600052602060002090601f016020900481019282620001ac5760008555620001f7565b82601f10620001c757805160ff1916838001178555620001f7565b82800160010185558215620001f7579182015b82811115620001f7578251825591602001919060010190620001da565b506200020592915062000209565b5090565b5b808211156200020557600081556001016200020a565b6001600160a01b03811681146200023657600080fd5b50565b634e487b7160e01b600052604160045260246000fd5b600080600080600080600060e0888a0312156200026b57600080fd5b8751620002788162000220565b809750506020808901516200028d8162000220565b60408a0151909750620002a08162000220565b60608a015160808b015160a08c015160c08d0151939950919750955093506001600160401b0380821115620002d457600080fd5b818b0191508b601f830112620002e957600080fd5b815181811115620002fe57620002fe62000239565b604051601f8201601f19908116603f0116810190838211818310171562000329576200032962000239565b816040528281528e868487010111156200034257600080fd5b600093505b8284101562000366578484018601518185018701529285019262000347565b82841115620003785760008684830101525b80965050505050505092959891949750929550565b600060208284031215620003a057600080fd5b5051919050565b600181811c90821680620003bc57607f821691505b60208210811415620003de57634e487b7160e01b600052602260045260246000fd5b50919050565b6110f680620003f46000396000f3fe608060405234801561001057600080fd5b50600436106100c55760003560e01c806302fe5305146100ca5780630b9663db146100df57806318293ec6146100fb578063200d2ed21461011e5780634b6b164b146101335780635bdc2fab1461013c5780637ebd1b301461014f5780638da5cb5b1461016f5780638ee0103a1461019a5780638f1c94d6146101ad578063a2c8b177146101c0578063c7688cf8146101c9578063cb5a872d146101dc578063ccf010d8146101ef578063eac989f814610202575b600080fd5b6100dd6100d8366004610d80565b610217565b005b6100e860035481565b6040519081526020015b60405180910390f35b61010e610109366004610df1565b610273565b60405190151581526020016100f2565b61012661039d565b6040516100f29190610e20565b6100e860045481565b6100dd61014a366004610e48565b61048d565b61016261015d366004610df1565b61075b565b6040516100f29190610e6a565b600054610182906001600160a01b031681565b6040516001600160a01b0390911681526020016100f2565b6101826101a8366004610e48565b61082b565b6101626101bb366004610eb7565b610903565b6100e860025481565b6100dd6101d7366004610df1565b6109f9565b600154610182906001600160a01b031681565b600554610182906001600160a01b031681565b61020a610acf565b6040516100f29190610ee3565b6000546001600160a01b031633146102625760405162461bcd60e51b815260206004820152600960248201526837b7363ca7bbb732b960b91b60448201526064015b60405180910390fd5b61026e60068383610ce7565b505050565b600554604080516357d743bb60e11b815290516000926001600160a01b03169163afae8776916004808301926020929190829003018186803b1580156102b857600080fd5b505afa1580156102cc573d6000803e3d6000fd5b505050506040513d601f19601f820116820180604052508101906102f09190610f38565b8214156102ff57506001919050565b600554604051630393ce0360e21b81526004810184905260009182916001600160a01b0390911690630e4f380c90602401604080518083038186803b15801561034757600080fd5b505afa15801561035b573d6000803e3d6000fd5b505050506040513d601f19601f8201168201806040525081019061037f9190610f51565b91509150600354821180610394575060025481105b15949350505050565b600080600160009054906101000a90046001600160a01b03166001600160a01b031663900cf0cf6040518163ffffffff1660e01b815260040160206040518083038186803b1580156103ee57600080fd5b505afa158015610402573d6000803e3d6000fd5b505050506040513d601f19601f820116820180604052508101906104269190610f38565b6000805260076020527f6d5257204ebe7d88fd91ae87941cb2dd9d8062b64ae5a2bd2d28ec40b9fbf6df549091501561046157600391505090565b60025481101561047357600091505090565b60035481111561048557600291505090565b600191505090565b600161049761039d565b60038111156104a8576104a8610e0a565b146104e75760405162461bcd60e51b815260206004820152600f60248201526e313ab1b5b2ba103737ba1037b832b760891b6044820152606401610259565b6104f082610273565b61052e5760405162461bcd60e51b815260206004820152600f60248201526e696e76616c6964207469636b65747360881b6044820152606401610259565b600554604051637a94c56560e11b81526000916001600160a01b03169063f5298aca9061056390339087908790600401610f75565b600060405180830381600087803b15801561057d57600080fd5b505af1158015610591573d6000803e3d6000fd5b505050600082815260076020526040902060028101805491925090158015906105f357508054339082906105c790600190610fac565b815481106105d7576105d7610fc3565b60009182526020909120600290910201546001600160a01b0316145b156106455780548490829061060a90600190610fac565b8154811061061a5761061a610fc3565b9060005260206000209060020201600101600082825461063a9190610fd9565b909155506106e69050565b805460009015610684578154829061065f90600190610fac565b8154811061066f5761066f610fc3565b90600052602060002090600202016001015490505b604080518082019091523381528290602081016106a18885610fd9565b90528154600180820184556000938452602093849020835160029093020180546001600160a01b0319166001600160a01b039093169290921782559190920151910155505b33600090815260018301602052604081208054869290610707908490610fd9565b90915550506040805133815260208101859052908101869052606081018590527f87d503c426857d99ea9bd93fedc66f2533a1dbb759f1765f60652e499d6527889060800160405180910390a15050505050565b600081815260076020526040902080546060919061078b5760405162461bcd60e51b815260040161025990610ff1565b6004546001600160401b038111156107a5576107a5611016565b6040519080825280602002602001820160405280156107ce578160200160208202803683370190505b50915060005b600454811015610824576107e8848261082b565b8382815181106107fa576107fa610fc3565b6001600160a01b03909216602092830291909101909101528061081c8161102c565b9150506107d4565b5050919050565b60008281526007602052604081206002810180548390829061084f90600190610fac565b8154811061085f5761085f610fc3565b906000526020600020906002020160010154905060006108aa846000015487604080516020808201949094528082019290925280518083038201815260609092019052805191012090565b905060006108b8838361105d565b905060006108c68583610b5d565b90508481815481106108da576108da610fc3565b60009182526020909120600290910201546001600160a01b031696505050505050505b92915050565b60008381526007602052604090208054606091906109335760405162461bcd60e51b815260040161025990610ff1565b6004546109408486610fd9565b111561095757836004546109549190610fac565b92505b826001600160401b0381111561096f5761096f611016565b604051908082528060200260200182016040528015610998578160200160208202803683370190505b50915060005b838110156109f0576109b4866101a88388610fd9565b8382815181106109c6576109c6610fc3565b6001600160a01b0390921660209283029190910190910152806109e88161102c565b91505061099e565b50509392505050565b8015610a375760405162461bcd60e51b815260206004820152600d60248201526c1a5b9d985b1a59081c9bdd5b99609a1b6044820152606401610259565b6000818152600760205260409020805415610a865760405162461bcd60e51b815260206004820152600f60248201526e185b1c9958591e481c9859999b1959608a1b6044820152606401610259565b610a8e610b70565b8082556040517fcd042e772ef4bf18e29cc6a59288ef170b8597337e487b3fc01ff3acf855a15f91610ac39133918691610f75565b60405180910390a15050565b60068054610adc90611071565b80601f0160208091040260200160405190810160405280929190818152602001828054610b0890611071565b8015610b555780601f10610b2a57610100808354040283529160200191610b55565b820191906000526020600020905b815481529060010190602001808311610b3857829003601f168201915b505050505081565b6000610b698383610bbd565b9392505050565b6000466001811480610b825750806002145b610baf5760408051426020820152016040516020818303038152906040528051906020012060001c610bb7565b610bb7610c48565b91505090565b8154600090610bce575060006108fd565b82546000905b80821015610c40576000610beb60028484186110ac565b610bf790848416610fd9565b905084868281548110610c0c57610c0c610fc3565b9060005260206000209060020201600101541115610c2c57809150610c3a565b610c37816001610fd9565b92505b50610bd4565b509392505050565b6040516000908190819060ff9082818181855afa9150503d8060008114610c8b576040519150601f19603f3d011682016040523d82523d6000602084013e610c90565b606091505b5091509150818015610ca3575080516020145b610cdd5760405162461bcd60e51b815260206004820152600b60248201526a34b73b30b634b2103b393360a91b6044820152606401610259565b6020015192915050565b828054610cf390611071565b90600052602060002090601f016020900481019282610d155760008555610d5b565b82601f10610d2e5782800160ff19823516178555610d5b565b82800160010185558215610d5b579182015b82811115610d5b578235825591602001919060010190610d40565b50610d67929150610d6b565b5090565b5b80821115610d675760008155600101610d6c565b60008060208385031215610d9357600080fd5b82356001600160401b0380821115610daa57600080fd5b818501915085601f830112610dbe57600080fd5b813581811115610dcd57600080fd5b866020828501011115610ddf57600080fd5b60209290920196919550909350505050565b600060208284031215610e0357600080fd5b5035919050565b634e487b7160e01b600052602160045260246000fd5b6020810160048310610e4257634e487b7160e01b600052602160045260246000fd5b91905290565b60008060408385031215610e5b57600080fd5b50508035926020909101359150565b6020808252825182820181905260009190848201906040850190845b81811015610eab5783516001600160a01b031683529284019291840191600101610e86565b50909695505050505050565b600080600060608486031215610ecc57600080fd5b505081359360208301359350604090920135919050565b600060208083528351808285015260005b81811015610f1057858101830151858201604001528201610ef4565b81811115610f22576000604083870101525b50601f01601f1916929092016040019392505050565b600060208284031215610f4a57600080fd5b5051919050565b60008060408385031215610f6457600080fd5b505080516020909101519092909150565b6001600160a01b039390931683526020830191909152604082015260600190565b634e487b7160e01b600052601160045260246000fd5b600082821015610fbe57610fbe610f96565b500390565b634e487b7160e01b600052603260045260246000fd5b60008219821115610fec57610fec610f96565b500190565b6020808252600b908201526a1b9bdd081c9859999b195960aa1b604082015260600190565b634e487b7160e01b600052604160045260246000fd5b600060001982141561104057611040610f96565b5060010190565b634e487b7160e01b600052601260045260246000fd5b60008261106c5761106c611047565b500690565b600181811c9082168061108557607f821691505b602082108114156110a657634e487b7160e01b600052602260045260246000fd5b50919050565b6000826110bb576110bb611047565b50049056fea2646970667358221220672adb552fdeff6d5e43c3d0a75be81b13be39f7002dc32b6a288854446a218664736f6c63430008080033a2646970667358221220649299b01ecf8cdd7343fe29678a1e3c05d75b35ba46784b93d53db93b62943764736f6c63430008080033",
  "linkReferences": {},
  "deployedLinkReferences": {}
}