{
  "_format": "hh-sol-artifact-1",
  "contractName": "Access",
  "sourceName": "contracts/Access.sol",
  "abi": [
    {
      "anonymous": false,
      "inputs": [
        {
          "indexed": true,
          "internalType": "bytes32",
          "name": "role",
          "type": "bytes32"
        },
        {
          "indexed": true,
          "internalType": "bytes32",
          "name": "previousAdminRole",
          "type": "bytes32"
        },
        {
          "indexed": true,
          "internalType": "bytes32",
          "name": "newAdminRole",
          "type": "bytes32"
        }
      ],
      "name": "RoleAdminChanged",
      "type": "event"
    },
    {
      "anonymous": false,
      "inputs": [
        {
          "indexed": true,
          "internalType": "bytes32",
          "name": "role",
          "type": "bytes32"
        },
        {
          "indexed": true,
          "internalType": "address",
          "name": "account",
          "type": "address"
        },
        {
          "indexed": true,
          "internalType": "address",
          "name": "sender",
          "type": "address"
        }
      ],
      "name": "RoleGranted",
      "type": "event"
    },
    {
      "anonymous": false,
      "inputs": [
        {
          "indexed": true,
          "internalType": "bytes32",
          "name": "role",
          "type": "bytes32"
        },
        {
          "indexed": true,
          "internalType": "address",
          "name": "account",
          "type": "address"
        },
        {
          "indexed": true,
          "internalType": "address",
          "name": "sender",
          "type": "address"
        }
      ],
      "name": "RoleRevoked",
      "type": "event"
    },
    {
      "inputs": [],
      "name": "ADMIN_ROLE",
      "outputs": [
        {
          "internalType": "bytes32",
          "name": "",
          "type": "bytes32"
        }
      ],
      "stateMutability": "view",
      "type": "function"
    },
    {
      "inputs": [],
      "name": "DEFAULT_ADMIN_ROLE",
      "outputs": [
        {
          "internalType": "bytes32",
          "name": "",
          "type": "bytes32"
        }
      ],
      "stateMutability": "view",
      "type": "function"
    },
    {
      "inputs": [],
      "name": "KEEPER_ROLE",
      "outputs": [
        {
          "internalType": "bytes32",
          "name": "",
          "type": "bytes32"
        }
      ],
      "stateMutability": "view",
      "type": "function"
    },
    {
      "inputs": [],
      "name": "RELAYER_ROLE",
      "outputs": [
        {
          "internalType": "bytes32",
          "name": "",
          "type": "bytes32"
        }
      ],
      "stateMutability": "view",
      "type": "function"
    },
    {
      "inputs": [],
      "name": "elitePad",
      "outputs": [
        {
          "internalType": "address",
          "name": "",
          "type": "address"
        }
      ],
      "stateMutability": "view",
      "type": "function"
    },
    {
      "inputs": [
        {
          "internalType": "bytes32",
          "name": "role",
          "type": "bytes32"
        }
      ],
      "name": "getRoleAdmin",
      "outputs": [
        {
          "internalType": "bytes32",
          "name": "",
          "type": "bytes32"
        }
      ],
      "stateMutability": "view",
      "type": "function"
    },
    {
      "inputs": [
        {
          "internalType": "bytes32",
          "name": "role",
          "type": "bytes32"
        },
        {
          "internalType": "address",
          "name": "account",
          "type": "address"
        }
      ],
      "name": "grantRole",
      "outputs": [],
      "stateMutability": "nonpayable",
      "type": "function"
    },
    {
      "inputs": [
        {
          "internalType": "bytes32",
          "name": "role",
          "type": "bytes32"
        },
        {
          "internalType": "address",
          "name": "account",
          "type": "address"
        }
      ],
      "name": "hasRole",
      "outputs": [
        {
          "internalType": "bool",
          "name": "",
          "type": "bool"
        }
      ],
      "stateMutability": "view",
      "type": "function"
    },
    {
      "inputs": [],
      "name": "initialize",
      "outputs": [],
      "stateMutability": "nonpayable",
      "type": "function"
    },
    {
      "inputs": [
        {
          "internalType": "address",
          "name": "admin",
          "type": "address"
        }
      ],
      "name": "isAdmin",
      "outputs": [
        {
          "internalType": "bool",
          "name": "",
          "type": "bool"
        }
      ],
      "stateMutability": "view",
      "type": "function"
    },
    {
      "inputs": [
        {
          "internalType": "address",
          "name": "keeper",
          "type": "address"
        }
      ],
      "name": "isKeeper",
      "outputs": [
        {
          "internalType": "bool",
          "name": "",
          "type": "bool"
        }
      ],
      "stateMutability": "view",
      "type": "function"
    },
    {
      "inputs": [
        {
          "internalType": "address",
          "name": "relayer",
          "type": "address"
        }
      ],
      "name": "isRelayer",
      "outputs": [
        {
          "internalType": "bool",
          "name": "",
          "type": "bool"
        }
      ],
      "stateMutability": "view",
      "type": "function"
    },
    {
      "inputs": [
        {
          "internalType": "bytes32",
          "name": "role",
          "type": "bytes32"
        },
        {
          "internalType": "address",
          "name": "account",
          "type": "address"
        }
      ],
      "name": "renounceRole",
      "outputs": [],
      "stateMutability": "nonpayable",
      "type": "function"
    },
    {
      "inputs": [
        {
          "internalType": "bytes32",
          "name": "role",
          "type": "bytes32"
        },
        {
          "internalType": "address",
          "name": "account",
          "type": "address"
        }
      ],
      "name": "revokeRole",
      "outputs": [],
      "stateMutability": "nonpayable",
      "type": "function"
    },
    {
      "inputs": [
        {
          "internalType": "address",
          "name": "admin",
          "type": "address"
        },
        {
          "internalType": "bool",
          "name": "enable",
          "type": "bool"
        }
      ],
      "name": "setAdmin",
      "outputs": [],
      "stateMutability": "nonpayable",
      "type": "function"
    },
    {
      "inputs": [
        {
          "internalType": "address",
          "name": "_elitePad",
          "type": "address"
        }
      ],
      "name": "setElitePad",
      "outputs": [],
      "stateMutability": "nonpayable",
      "type": "function"
    },
    {
      "inputs": [
        {
          "internalType": "address",
          "name": "keeper",
          "type": "address"
        },
        {
          "internalType": "bool",
          "name": "enable",
          "type": "bool"
        }
      ],
      "name": "setKeeper",
      "outputs": [],
      "stateMutability": "nonpayable",
      "type": "function"
    },
    {
      "inputs": [
        {
          "internalType": "address",
          "name": "relayer",
          "type": "address"
        },
        {
          "internalType": "bool",
          "name": "enable",
          "type": "bool"
        }
      ],
      "name": "setRelayer",
      "outputs": [],
      "stateMutability": "nonpayable",
      "type": "function"
    },
    {
      "inputs": [
        {
          "internalType": "bytes4",
          "name": "interfaceId",
          "type": "bytes4"
        }
      ],
      "name": "supportsInterface",
      "outputs": [
        {
          "internalType": "bool",
          "name": "",
          "type": "bool"
        }
      ],
      "stateMutability": "view",
      "type": "function"
    }
  ],
  "bytecode": "0x608060405234801561001057600080fd5b50610beb806100206000396000f3fe608060405234801561001057600080fd5b50600436106100f15760003560e01c806301ffc9a7146100f6578063248a9ca31461011e57806324d7806c1461013f5780632f2ff15d14610152578063364bc15a1461016757806336568abe1461017c5780634b0bddd21461018f578063541d5548146101a25780636ba42aaa146101b557806375b238fc146101c85780638129fc1c146101dd57806391d14854146101e5578063926d7d7f146101f8578063a217fddf1461020d578063ca19e44f14610215578063cbaddcb114610240578063d1b9e85314610253578063d547741f14610266578063ecd8dc3a14610279575b600080fd5b610109610104366004610911565b61028c565b60405190151581526020015b60405180910390f35b61013161012c36600461093b565b6102c3565b604051908152602001610115565b61010961014d366004610970565b6102d8565b61016561016036600461098b565b6102f2565b005b610131600080516020610b7683398151915281565b61016561018a36600461098b565b610314565b61016561019d3660046109b7565b610397565b6101096101b0366004610970565b6103b0565b6101096101c3366004610970565b6103ca565b610131600080516020610b9683398151915281565b6101656103e4565b6101096101f336600461098b565b6104b0565b610131600080516020610b5683398151915281565b610131600081565b609754610228906001600160a01b031681565b6040516001600160a01b039091168152602001610115565b61016561024e366004610970565b6104db565b6101656102613660046109b7565b61053e565b61016561027436600461098b565b610557565b6101656102873660046109b7565b610574565b60006001600160e01b03198216637965db0b60e01b14806102bd57506301ffc9a760e01b6001600160e01b03198316145b92915050565b60009081526065602052604090206001015490565b60006102bd600080516020610b96833981519152836104b0565b6102fb826102c3565b610305813361058d565b61030f83836105f1565b505050565b6001600160a01b03811633146103895760405162461bcd60e51b815260206004820152602f60248201527f416363657373436f6e74726f6c3a2063616e206f6e6c792072656e6f756e636560448201526e103937b632b9903337b91039b2b63360891b60648201526084015b60405180910390fd5b6103938282610677565b5050565b610393600080516020610b9683398151915283836106de565b60006102bd600080516020610b56833981519152836104b0565b60006102bd600080516020610b76833981519152836104b0565b600054610100900460ff166103ff5760005460ff1615610403565b303b155b6104665760405162461bcd60e51b815260206004820152602e60248201527f496e697469616c697a61626c653a20636f6e747261637420697320616c72656160448201526d191e481a5b9a5d1a585b1a5e995960921b6064820152608401610380565b600054610100900460ff16158015610488576000805461ffff19166101011790555b6104906106f8565b61049b600033610765565b80156104ad576000805461ff00191690555b50565b60009182526065602090815260408084206001600160a01b0393909316845291905290205460ff1690565b6104e4336102d8565b61051c5760405162461bcd60e51b815260206004820152600960248201526837b7363ca0b236b4b760b91b6044820152606401610380565b609780546001600160a01b0319166001600160a01b0392909216919091179055565b610393600080516020610b7683398151915283836106de565b610560826102c3565b61056a813361058d565b61030f8383610677565b610393600080516020610b5683398151915283836106de565b61059782826104b0565b610393576105af816001600160a01b0316601461076f565b6105ba83602061076f565b6040516020016105cb929190610a23565b60408051601f198184030181529082905262461bcd60e51b825261038091600401610a92565b6105fb82826104b0565b6103935760008281526065602090815260408083206001600160a01b03851684529091529020805460ff191660011790556106333390565b6001600160a01b0316816001600160a01b0316837f2f8788117e7eff1d82e926ec794901d17c78024a50270940304540a733656f0d60405160405180910390a45050565b61068182826104b0565b156103935760008281526065602090815260408083206001600160a01b0385168085529252808320805460ff1916905551339285917ff6391f5c32d9c69d2a47ea670b442974b53935d1edc7fd64eb21e047a839171b9190a45050565b80156106ee5761030f83836102f2565b61030f8383610557565b600054610100900460ff166107635760405162461bcd60e51b815260206004820152602b60248201527f496e697469616c697a61626c653a20636f6e7472616374206973206e6f74206960448201526a6e697469616c697a696e6760a81b6064820152608401610380565b565b61039382826105f1565b6060600061077e836002610adb565b610789906002610afa565b6001600160401b038111156107a0576107a0610b12565b6040519080825280601f01601f1916602001820160405280156107ca576020820181803683370190505b509050600360fc1b816000815181106107e5576107e5610b28565b60200101906001600160f81b031916908160001a905350600f60fb1b8160018151811061081457610814610b28565b60200101906001600160f81b031916908160001a9053506000610838846002610adb565b610843906001610afa565b90505b60018111156108bb576f181899199a1a9b1b9c1cb0b131b232b360811b85600f166010811061087757610877610b28565b1a60f81b82828151811061088d5761088d610b28565b60200101906001600160f81b031916908160001a90535060049490941c936108b481610b3e565b9050610846565b50831561090a5760405162461bcd60e51b815260206004820181905260248201527f537472696e67733a20686578206c656e67746820696e73756666696369656e746044820152606401610380565b9392505050565b60006020828403121561092357600080fd5b81356001600160e01b03198116811461090a57600080fd5b60006020828403121561094d57600080fd5b5035919050565b80356001600160a01b038116811461096b57600080fd5b919050565b60006020828403121561098257600080fd5b61090a82610954565b6000806040838503121561099e57600080fd5b823591506109ae60208401610954565b90509250929050565b600080604083850312156109ca57600080fd5b6109d383610954565b9150602083013580151581146109e857600080fd5b809150509250929050565b60005b83811015610a0e5781810151838201526020016109f6565b83811115610a1d576000848401525b50505050565b76020b1b1b2b9b9a1b7b73a3937b61d1030b1b1b7bab73a1604d1b815260008351610a558160178501602088016109f3565b7001034b99036b4b9b9b4b733903937b6329607d1b6017918401918201528351610a868160288401602088016109f3565b01602801949350505050565b6020815260008251806020840152610ab18160408501602087016109f3565b601f01601f19169190910160400192915050565b634e487b7160e01b600052601160045260246000fd5b6000816000190483118215151615610af557610af5610ac5565b500290565b60008219821115610b0d57610b0d610ac5565b500190565b634e487b7160e01b600052604160045260246000fd5b634e487b7160e01b600052603260045260246000fd5b600081610b4d57610b4d610ac5565b50600019019056fee2b7fb3b832174769106daebcfd6d1970523240dda11281102db9363b83b0dc4fc8737ab85eb45125971625a9ebdb75cc78e01d5c1fa80c4c6e5203f47bc4faba49807205ce4d355092ef5a8a18f56e8913cf4a201fbe287825b095693c21775a2646970667358221220a0cf700582985ed6dfaeb246cd91b85cb0b3cd0b6f453d2db534df9e101a7f4a64736f6c63430008080033",
  "linkReferences": {},
  "deployedLinkReferences": {}
}