{
  "_format": "hh-sol-artifact-1",
  "contractName": "Epoch",
  "sourceName": "contracts/Epoch.sol",
  "abi": [
    {
      "inputs": [
        {
          "internalType": "uint256",
          "name": "timestamp",
          "type": "uint256"
        }
      ],
      "name": "epoch",
      "outputs": [
        {
          "internalType": "uint256",
          "name": "",
          "type": "uint256"
        }
      ],
      "stateMutability": "view",
      "type": "function"
    },
    {
      "inputs": [],
      "name": "epoch",
      "outputs": [
        {
          "internalType": "uint256",
          "name": "",
          "type": "uint256"
        }
      ],
      "stateMutability": "view",
      "type": "function"
    },
    {
      "inputs": [],
      "name": "epochPeriod",
      "outputs": [
        {
          "internalType": "uint256",
          "name": "",
          "type": "uint256"
        }
      ],
      "stateMutability": "view",
      "type": "function"
    },
    {
      "inputs": [],
      "name": "epochStartTime",
      "outputs": [
        {
          "internalType": "uint256",
          "name": "",
          "type": "uint256"
        }
      ],
      "stateMutability": "view",
      "type": "function"
    },
    {
      "inputs": [],
      "name": "initialize",
      "outputs": [],
      "stateMutability": "nonpayable",
      "type": "function"
    }
  ],
  "bytecode": "0x608060405234801561001057600080fd5b5061025c806100206000396000f3fe608060405234801561001057600080fd5b50600436106100575760003560e01c80635487c5771461005c5780638129fc1c14610081578063900cf0cf1461008b578063b5b7a18414610093578063f60ca6411461009d575b600080fd5b61006f61006a3660046101a6565b6100a6565b60405190815260200160405180910390f35b6100896100d5565b005b61006f610196565b61006f6201518081565b61006f60015481565b600062015180600154836100ba91906101d5565b6100c491906101ec565b6100cf90600161020e565b92915050565b600054610100900460ff166100f05760005460ff16156100f4565b303b155b61015b5760405162461bcd60e51b815260206004820152602e60248201527f496e697469616c697a61626c653a20636f6e747261637420697320616c72656160448201526d191e481a5b9a5d1a585b1a5e995960921b606482015260840160405180910390fd5b600054610100900460ff1615801561017d576000805461ffff19166101011790555b426001558015610193576000805461ff00191690555b50565b60006101a1426100a6565b905090565b6000602082840312156101b857600080fd5b5035919050565b634e487b7160e01b600052601160045260246000fd5b6000828210156101e7576101e76101bf565b500390565b60008261020957634e487b7160e01b600052601260045260246000fd5b500490565b60008219821115610221576102216101bf565b50019056fea2646970667358221220afc89a08fa810f2273edfc14d2e0761c704c716a294da6e6f5f2b49d25e49b8264736f6c63430008080033",
  "linkReferences": {},
  "deployedLinkReferences": {}
}