{
  "_format": "hh-sol-artifact-1",
  "contractName": "ElitePad",
  "sourceName": "contracts/ElitePad.sol",
  "abi": [
    {
      "anonymous": false,
      "inputs": [
        {
          "indexed": false,
          "internalType": "address",
          "name": "authPool",
          "type": "address"
        },
        {
          "indexed": false,
          "internalType": "uint256",
          "name": "chainId",
          "type": "uint256"
        }
      ],
      "name": "AddAuthPool",
      "type": "event"
    },
    {
      "anonymous": false,
      "inputs": [
        {
          "indexed": false,
          "internalType": "address",
          "name": "_authPool",
          "type": "address"
        },
        {
          "indexed": false,
          "internalType": "address",
          "name": "_raffleTicket",
          "type": "address"
        },
        {
          "indexed": false,
          "internalType": "address",
          "name": "_airdrop",
          "type": "address"
        },
        {
          "indexed": false,
          "internalType": "address",
          "name": "_weight",
          "type": "address"
        },
        {
          "indexed": false,
          "internalType": "address",
          "name": "_epochC",
          "type": "address"
        },
        {
          "indexed": false,
          "internalType": "address",
          "name": "_referenceC",
          "type": "address"
        },
        {
          "indexed": false,
          "internalType": "address",
          "name": "_access",
          "type": "address"
        },
        {
          "indexed": false,
          "internalType": "address",
          "name": "_bucketFactory",
          "type": "address"
        },
        {
          "indexed": false,
          "internalType": "address",
          "name": "_weth",
          "type": "address"
        }
      ],
      "name": "Initialize",
      "type": "event"
    },
    {
      "inputs": [],
      "name": "REFERENCE_BONUS_POINT",
      "outputs": [
        {
          "internalType": "uint256",
          "name": "",
          "type": "uint256"
        }
      ],
      "stateMutability": "view",
      "type": "function"
    },
    {
      "inputs": [],
      "name": "REFERENCE_DENOMINATOR",
      "outputs": [
        {
          "internalType": "uint256",
          "name": "",
          "type": "uint256"
        }
      ],
      "stateMutability": "view",
      "type": "function"
    },
    {
      "inputs": [],
      "name": "REFERENCE_VIP_BONUS_POINT",
      "outputs": [
        {
          "internalType": "uint256",
          "name": "",
          "type": "uint256"
        }
      ],
      "stateMutability": "view",
      "type": "function"
    },
    {
      "inputs": [],
      "name": "TICKET_VALIDITY_PERIOD",
      "outputs": [
        {
          "internalType": "uint256",
          "name": "",
          "type": "uint256"
        }
      ],
      "stateMutability": "view",
      "type": "function"
    },
    {
      "inputs": [],
      "name": "access",
      "outputs": [
        {
          "internalType": "contract Access",
          "name": "",
          "type": "address"
        }
      ],
      "stateMutability": "view",
      "type": "function"
    },
    {
      "inputs": [
        {
          "internalType": "address",
          "name": "token",
          "type": "address"
        },
        {
          "internalType": "uint256[]",
          "name": "tokenIds",
          "type": "uint256[]"
        },
        {
          "internalType": "address",
          "name": "tokenOwner",
          "type": "address"
        },
        {
          "internalType": "bytes32",
          "name": "referenceCode",
          "type": "bytes32"
        }
      ],
      "name": "addAuth",
      "outputs": [],
      "stateMutability": "nonpayable",
      "type": "function"
    },
    {
      "inputs": [],
      "name": "airdrop",
      "outputs": [
        {
          "internalType": "contract AirdropOne",
          "name": "",
          "type": "address"
        }
      ],
      "stateMutability": "view",
      "type": "function"
    },
    {
      "inputs": [],
      "name": "authPool",
      "outputs": [
        {
          "internalType": "contract AuthPool",
          "name": "",
          "type": "address"
        }
      ],
      "stateMutability": "view",
      "type": "function"
    },
    {
      "inputs": [],
      "name": "bucketFactory",
      "outputs": [
        {
          "internalType": "contract BucketFactory",
          "name": "",
          "type": "address"
        }
      ],
      "stateMutability": "view",
      "type": "function"
    },
    {
      "inputs": [],
      "name": "bucketPrice",
      "outputs": [
        {
          "internalType": "uint256",
          "name": "",
          "type": "uint256"
        }
      ],
      "stateMutability": "view",
      "type": "function"
    },
    {
      "inputs": [
        {
          "internalType": "address[]",
          "name": "tokens",
          "type": "address[]"
        }
      ],
      "name": "claim",
      "outputs": [],
      "stateMutability": "nonpayable",
      "type": "function"
    },
    {
      "inputs": [],
      "name": "claim",
      "outputs": [],
      "stateMutability": "nonpayable",
      "type": "function"
    },
    {
      "inputs": [
        {
          "internalType": "address[]",
          "name": "tokens",
          "type": "address[]"
        }
      ],
      "name": "claimAll",
      "outputs": [],
      "stateMutability": "nonpayable",
      "type": "function"
    },
    {
      "inputs": [
        {
          "internalType": "uint256",
          "name": "round",
          "type": "uint256"
        },
        {
          "internalType": "uint256",
          "name": "numPerRound",
          "type": "uint256"
        },
        {
          "internalType": "string",
          "name": "uri",
          "type": "string"
        }
      ],
      "name": "createBucket",
      "outputs": [
        {
          "internalType": "contract Bucket",
          "name": "",
          "type": "address"
        }
      ],
      "stateMutability": "nonpayable",
      "type": "function"
    },
    {
      "inputs": [
        {
          "internalType": "address",
          "name": "token",
          "type": "address"
        },
        {
          "internalType": "uint256[]",
          "name": "tokenIds",
          "type": "uint256[]"
        },
        {
          "internalType": "address",
          "name": "tokenOwner",
          "type": "address"
        }
      ],
      "name": "delAuth",
      "outputs": [],
      "stateMutability": "nonpayable",
      "type": "function"
    },
    {
      "inputs": [],
      "name": "epochC",
      "outputs": [
        {
          "internalType": "contract Epoch",
          "name": "",
          "type": "address"
        }
      ],
      "stateMutability": "view",
      "type": "function"
    },
    {
      "inputs": [
        {
          "internalType": "contract AuthPool",
          "name": "_authPool",
          "type": "address"
        },
        {
          "internalType": "contract RaffleTicket",
          "name": "_raffleTicket",
          "type": "address"
        },
        {
          "internalType": "contract AirdropOne",
          "name": "_airdrop",
          "type": "address"
        },
        {
          "internalType": "contract Weights",
          "name": "_weight",
          "type": "address"
        },
        {
          "internalType": "contract Epoch",
          "name": "_epochC",
          "type": "address"
        },
        {
          "internalType": "contract Reference",
          "name": "_referenceC",
          "type": "address"
        },
        {
          "internalType": "contract Access",
          "name": "_access",
          "type": "address"
        },
        {
          "internalType": "contract BucketFactory",
          "name": "_bucketFactory",
          "type": "address"
        },
        {
          "internalType": "contract IERC20Upgradeable",
          "name": "_weth",
          "type": "address"
        }
      ],
      "name": "initialize",
      "outputs": [],
      "stateMutability": "nonpayable",
      "type": "function"
    },
    {
      "inputs": [
        {
          "internalType": "address",
          "name": "",
          "type": "address"
        }
      ],
      "name": "pendingGoldenTickets",
      "outputs": [
        {
          "internalType": "uint256",
          "name": "",
          "type": "uint256"
        }
      ],
      "stateMutability": "view",
      "type": "function"
    },
    {
      "inputs": [
        {
          "internalType": "address",
          "name": "account",
          "type": "address"
        },
        {
          "internalType": "address[]",
          "name": "tokens",
          "type": "address[]"
        }
      ],
      "name": "pendingTickets",
      "outputs": [
        {
          "internalType": "uint256",
          "name": "sumTicket",
          "type": "uint256"
        }
      ],
      "stateMutability": "view",
      "type": "function"
    },
    {
      "inputs": [],
      "name": "raffleTicket",
      "outputs": [
        {
          "internalType": "contract RaffleTicket",
          "name": "",
          "type": "address"
        }
      ],
      "stateMutability": "view",
      "type": "function"
    },
    {
      "inputs": [],
      "name": "referenceC",
      "outputs": [
        {
          "internalType": "contract Reference",
          "name": "",
          "type": "address"
        }
      ],
      "stateMutability": "view",
      "type": "function"
    },
    {
      "inputs": [
        {
          "internalType": "uint256",
          "name": "price",
          "type": "uint256"
        }
      ],
      "name": "setBucketPrice",
      "outputs": [],
      "stateMutability": "nonpayable",
      "type": "function"
    },
    {
      "inputs": [
        {
          "internalType": "address",
          "name": "",
          "type": "address"
        },
        {
          "internalType": "uint256",
          "name": "",
          "type": "uint256"
        }
      ],
      "name": "tokenAirdroped",
      "outputs": [
        {
          "internalType": "bool",
          "name": "",
          "type": "bool"
        }
      ],
      "stateMutability": "view",
      "type": "function"
    },
    {
      "inputs": [
        {
          "internalType": "address",
          "name": "",
          "type": "address"
        },
        {
          "internalType": "uint256",
          "name": "",
          "type": "uint256"
        }
      ],
      "name": "userClaimed",
      "outputs": [
        {
          "internalType": "uint256",
          "name": "",
          "type": "uint256"
        }
      ],
      "stateMutability": "view",
      "type": "function"
    },
    {
      "inputs": [],
      "name": "weights",
      "outputs": [
        {
          "internalType": "contract Weights",
          "name": "",
          "type": "address"
        }
      ],
      "stateMutability": "view",
      "type": "function"
    },
    {
      "inputs": [],
      "name": "weth",
      "outputs": [
        {
          "internalType": "contract IERC20Upgradeable",
          "name": "",
          "type": "address"
        }
      ],
      "stateMutability": "view",
      "type": "function"
    }
  ],
  "bytecode": "0x608060405234801561001057600080fd5b50611c79806100206000396000f3fe608060405234801561001057600080fd5b506004361061013e5760003560e01c806303bbd424146101435780631bdaccd8146101585780631e111751146101735780631e2de0d11461019357806325f86e91146101a6578063318d9e5d146101ae5780633884d635146101c15780633d636015146101e15780633fc8cef3146101ea578063464adac2146101fd5780634a45ca3a146102065780634e71d92d1461021957806364aed6011461022157806371907f1714610234578063986fe9bd14610247578063c649f0401461025a578063cb5a872d1461026d578063ccf010d814610280578063d57b10db14610299578063db4dce70146102a2578063dbb0f6f3146102b5578063dc6c867b146102f3578063e51e455914610306578063ef88aff114610319578063f5e95acb1461032c578063fcbf8b241461033f575b600080fd5b610156610151366004611611565b61036a565b005b610160600781565b6040519081526020015b60405180910390f35b61016061018136600461163f565b600b6020526000908152604090205481565b6101566101a13660046116a7565b61042c565b61016060c881565b6101566101bc3660046116a7565b610442565b6001546101d4906001600160a01b031681565b60405161016a91906116e8565b61016060085481565b6007546101d4906001600160a01b031681565b61016061012c81565b6101d46102143660046116fc565b61076d565b6101566108ac565b61016061022f36600461177b565b61093c565b6005546101d4906001600160a01b031681565b6006546101d4906001600160a01b031681565b6002546101d4906001600160a01b031681565b6003546101d4906001600160a01b031681565b6000546101d4906201000090046001600160a01b031681565b61016061271081565b6101566102b03660046117cf565b610b8c565b6102e36102c3366004611836565b600c60209081526000928352604080842090915290825290205460ff1681565b604051901515815260200161016a565b6004546101d4906001600160a01b031681565b610156610314366004611862565b610cd5565b6009546101d4906001600160a01b031681565b61015661033a3660046118d1565b61101b565b61016061034d366004611836565b600a60209081526000928352604080842090915290825290205481565b600554604051630935e01b60e21b81526001600160a01b03909116906324d7806c9061039a9033906004016116e8565b60206040518083038186803b1580156103b257600080fd5b505afa1580156103c6573d6000803e3d6000fd5b505050506040513d601f19601f820116820180604052508101906103ea91906119a2565b6104275760405162461bcd60e51b815260206004820152600960248201526837b7363ca0b236b4b760b91b60448201526064015b60405180910390fd5b600855565b6104368282610442565b61043e6108ac565b5050565b6003546040805163900cf0cf60e01b815290516000926001600160a01b03169163900cf0cf916004808301926020929190829003018186803b15801561048757600080fd5b505afa15801561049b573d6000803e3d6000fd5b505050506040513d601f19601f820116820180604052508101906104bf91906119bd565b905060006104ce6001836119ec565b90506000805b848110156106475760008686838181106104f0576104f0611a03565b9050602002016020810190610505919061163f565b6002546040516302ac50af60e41b81529192506000916001600160a01b0390911690632ac50af09061053b9085906004016116e8565b60206040518083038186803b15801561055357600080fd5b505afa158015610567573d6000803e3d6000fd5b505050506040513d601f19601f8201168201806040525081019061058b91906119bd565b905080156106325760095460405163e93119d960e01b81526000916001600160a01b03169063e93119d9906105c890339087908b90600401611a19565b60206040518083038186803b1580156105e057600080fd5b505afa1580156105f4573d6000803e3d6000fd5b505050506040513d601f19601f8201168201806040525081019061061891906119bd565b90506106248282611a3d565b61062e9086611a5c565b9450505b5050808061063f90611a74565b9150506104d4565b50801561076657336000908152600a60209081526040808320858452909152902054156106ad5760405162461bcd60e51b81526020600482015260146024820152731d5cd95c88185b1c9958591e4818db185a5b595960621b604482015260640161041e565b336000818152600a602090815260408083208684529091528120839055546201000090046001600160a01b03169063a647e8ec90858460016106f0600784611a5c565b6106fa91906119ec565b6040516001600160e01b031960e087901b1681526001600160a01b039094166004850152602484019290925260448301526064820152608401600060405180830381600087803b15801561074d57600080fd5b505af1158015610761573d6000803e3d6000fd5b505050505b5050505050565b60006107963330876008546107829190611a3d565b6007546001600160a01b03169291906111f6565b6006546003546040805163900cf0cf60e01b815290516001600160a01b039384169363c81a864c93339391169163900cf0cf91600480820192602092909190829003018186803b1580156107e957600080fd5b505afa1580156107fd573d6000803e3d6000fd5b505050506040513d601f19601f8201168201806040525081019061082191906119bd565b61082c906001611a5c565b888888886040518763ffffffff1660e01b815260040161085196959493929190611a8f565b602060405180830381600087803b15801561086b57600080fd5b505af115801561087f573d6000803e3d6000fd5b505050506040513d601f19601f820116820180604052508101906108a39190611ae2565b95945050505050565b336000908152600b6020526040902054801561093957336000818152600b6020526040808220829055905490516340c10f1960e01b81526004810192909252602482018390526201000090046001600160a01b0316906340c10f1990604401600060405180830381600087803b15801561092557600080fd5b505af1158015610766573d6000803e3d6000fd5b50565b600080600360009054906101000a90046001600160a01b03166001600160a01b031663900cf0cf6040518163ffffffff1660e01b815260040160206040518083038186803b15801561098d57600080fd5b505afa1580156109a1573d6000803e3d6000fd5b505050506040513d601f19601f820116820180604052508101906109c591906119bd565b905060006109d46001836119ec565b6001600160a01b0387166000908152600a6020908152604080832084845290915290205490915015610a0b57600092505050610b85565b60005b84811015610b81576000868683818110610a2a57610a2a611a03565b9050602002016020810190610a3f919061163f565b6002546040516302ac50af60e41b81529192506000916001600160a01b0390911690632ac50af090610a759085906004016116e8565b60206040518083038186803b158015610a8d57600080fd5b505afa158015610aa1573d6000803e3d6000fd5b505050506040513d601f19601f82011682018060405250810190610ac591906119bd565b90508015610b6c5760095460405163e93119d960e01b81526000916001600160a01b03169063e93119d990610b02908d9087908a90600401611a19565b60206040518083038186803b158015610b1a57600080fd5b505afa158015610b2e573d6000803e3d6000fd5b505050506040513d601f19601f82011682018060405250810190610b5291906119bd565b9050610b5e8282611a3d565b610b689088611a5c565b9650505b50508080610b7990611a74565b915050610a0e565b5050505b9392505050565b6005546040516335d2155560e11b81526001600160a01b0390911690636ba42aaa90610bbc9033906004016116e8565b60206040518083038186803b158015610bd457600080fd5b505afa158015610be8573d6000803e3d6000fd5b505050506040513d601f19601f82011682018060405250810190610c0c91906119a2565b80610c1f5750336001600160a01b038216145b610c675760405162461bcd60e51b815260206004820152601960248201527837b7363c9035b2b2b832b91037b9103a37b5b2b727bbb732b960391b604482015260640161041e565b600954604051630db4dce760e41b81526001600160a01b039091169063db4dce7090610c9d908790879087908790600401611aff565b600060405180830381600087803b158015610cb757600080fd5b505af1158015610ccb573d6000803e3d6000fd5b5050505050505050565b600554604051630a83aaa960e31b81526001600160a01b039091169063541d554890610d059033906004016116e8565b60206040518083038186803b158015610d1d57600080fd5b505afa158015610d31573d6000803e3d6000fd5b505050506040513d601f19601f82011682018060405250810190610d5591906119a2565b610d8f5760405162461bcd60e51b815260206004820152600b60248201526a37b7363ca932b630bcb2b960a91b604482015260640161041e565b6009546040516383a048b760e01b81526001600160a01b03909116906383a048b790610dc5908890889088908890600401611aff565b600060405180830381600087803b158015610ddf57600080fd5b505af1158015610df3573d6000803e3d6000fd5b5050600480546040516391d3924760e01b81526001600160a01b0390911693506391d392479250610e26918691016116e8565b600060405180830381600087803b158015610e4057600080fd5b505af1158015610e54573d6000803e3d6000fd5b50506002546040516302ac50af60e41b8152600093506001600160a01b039091169150632ac50af090610e8b9089906004016116e8565b60206040518083038186803b158015610ea357600080fd5b505afa158015610eb7573d6000803e3d6000fd5b505050506040513d601f19601f82011682018060405250810190610edb91906119bd565b90508015611013576001546001600160a01b031615610f57576001546040516321860a0560e01b81526001600160a01b03909116906321860a0590610f249086906004016116e8565b600060405180830381600087803b158015610f3e57600080fd5b505af1158015610f52573d6000803e3d6000fd5b505050505b8360005b85811015611004576000878783818110610f7757610f77611a03565b6001600160a01b038c166000908152600c60209081526040808320938202959095013580835292905292909220549192505060ff1615610fc45782610fbb81611b5a565b93505050610ff2565b6001600160a01b0389166000908152600c6020908152604080832093835292905220805460ff191660011790555b80610ffc81611a74565b915050610f5b565b5061101182828686611254565b505b505050505050565b600054610100900460ff166110365760005460ff161561103e565b61103e61139b565b6110a15760405162461bcd60e51b815260206004820152602e60248201527f496e697469616c697a61626c653a20636f6e747261637420697320616c72656160448201526d191e481a5b9a5d1a585b1a5e995960921b606482015260840161041e565b600054610100900460ff161580156110c3576000805461ffff19166101011790555b600980546001600160a01b038c81166001600160a01b03199283168117909355600080548d831662010000810262010000600160b01b031990921691909117909155600180548d84169085168117909155600280548d85169086168117909155600380548d86169087168117909155600480548d87169088168117909155600580548d88169089168117909155600680548d8916908a16811790915560078054988d1698909916881790985560408051998a5260208a0196909652948801939093526060870191909152608086015260a085015260c084015260e08301919091526101008201527f0552a30f2930f88d2de62ab23ac2c395e9da199f4b08ac1a8c60c3faa9bfa760906101200160405180910390a180156111ea576000805461ff00191690555b50505050505050505050565b61124e846323b872dd60e01b85858560405160240161121793929190611a19565b60408051601f198184030181529190526020810180516001600160e01b03166001600160e01b0319909316929092179091526113ac565b50505050565b60006112608486611a3d565b600480546040516376453cf160e11b815291820185905291925060009182916001600160a01b039091169063ec8a79e290602401604080518083038186803b1580156112ab57600080fd5b505afa1580156112bf573d6000803e3d6000fd5b505050506040513d601f19601f820116820180604052508101906112e39190611b71565b90925090506001600160a01b03821615611365576000816113055760c8611309565b61012c5b9050600061271061131a8387611a3d565b6113249190611ba6565b90506113308186611a5c565b6001600160a01b0385166000908152600b602052604081208054929750839290919061135d908490611a5c565b909155505050505b6001600160a01b0385166000908152600b60205260408120805485929061138d908490611a5c565b909155505050505050505050565b60006113a630611483565b15905090565b6000611401826040518060400160405280602081526020017f5361666545524332303a206c6f772d6c6576656c2063616c6c206661696c6564815250856001600160a01b03166114929092919063ffffffff16565b80519091501561147e578080602001905181019061141f91906119a2565b61147e5760405162461bcd60e51b815260206004820152602a60248201527f5361666545524332303a204552433230206f7065726174696f6e20646964206e6044820152691bdd081cdd58d8d9595960b21b606482015260840161041e565b505050565b6001600160a01b03163b151590565b60606114a184846000856114a9565b949350505050565b60608247101561150a5760405162461bcd60e51b815260206004820152602660248201527f416464726573733a20696e73756666696369656e742062616c616e636520666f6044820152651c8818d85b1b60d21b606482015260840161041e565b61151385611483565b61155f5760405162461bcd60e51b815260206004820152601d60248201527f416464726573733a2063616c6c20746f206e6f6e2d636f6e7472616374000000604482015260640161041e565b600080866001600160a01b0316858760405161157b9190611bf4565b60006040518083038185875af1925050503d80600081146115b8576040519150601f19603f3d011682016040523d82523d6000602084013e6115bd565b606091505b50915091506115cd8282866115d8565b979650505050505050565b606083156115e7575081610b85565b8251156115f75782518084602001fd5b8160405162461bcd60e51b815260040161041e9190611c10565b60006020828403121561162357600080fd5b5035919050565b6001600160a01b038116811461093957600080fd5b60006020828403121561165157600080fd5b8135610b858161162a565b60008083601f84011261166e57600080fd5b5081356001600160401b0381111561168557600080fd5b6020830191508360208260051b85010111156116a057600080fd5b9250929050565b600080602083850312156116ba57600080fd5b82356001600160401b038111156116d057600080fd5b6116dc8582860161165c565b90969095509350505050565b6001600160a01b0391909116815260200190565b6000806000806060858703121561171257600080fd5b843593506020850135925060408501356001600160401b038082111561173757600080fd5b818701915087601f83011261174b57600080fd5b81358181111561175a57600080fd5b88602082850101111561176c57600080fd5b95989497505060200194505050565b60008060006040848603121561179057600080fd5b833561179b8161162a565b925060208401356001600160401b038111156117b657600080fd5b6117c28682870161165c565b9497909650939450505050565b600080600080606085870312156117e557600080fd5b84356117f08161162a565b935060208501356001600160401b0381111561180b57600080fd5b6118178782880161165c565b909450925050604085013561182b8161162a565b939692955090935050565b6000806040838503121561184957600080fd5b82356118548161162a565b946020939093013593505050565b60008060008060006080868803121561187a57600080fd5b85356118858161162a565b945060208601356001600160401b038111156118a057600080fd5b6118ac8882890161165c565b90955093505060408601356118c08161162a565b949793965091946060013592915050565b60008060008060008060008060006101208a8c0312156118f057600080fd5b89356118fb8161162a565b985060208a013561190b8161162a565b975060408a013561191b8161162a565b965060608a013561192b8161162a565b955060808a013561193b8161162a565b945060a08a013561194b8161162a565b935060c08a013561195b8161162a565b925060e08a013561196b8161162a565b91506101008a013561197c8161162a565b809150509295985092959850929598565b8051801515811461199d57600080fd5b919050565b6000602082840312156119b457600080fd5b610b858261198d565b6000602082840312156119cf57600080fd5b5051919050565b634e487b7160e01b600052601160045260246000fd5b6000828210156119fe576119fe6119d6565b500390565b634e487b7160e01b600052603260045260246000fd5b6001600160a01b039384168152919092166020820152604081019190915260600190565b6000816000190483118215151615611a5757611a576119d6565b500290565b60008219821115611a6f57611a6f6119d6565b500190565b6000600019821415611a8857611a886119d6565b5060010190565b60018060a01b038716815285602082015284604082015283606082015260a060808201528160a0820152818360c0830137600081830160c090810191909152601f909201601f1916010195945050505050565b600060208284031215611af457600080fd5b8151610b858161162a565b6001600160a01b03858116825260606020830181905282018490526000906001600160fb1b03851115611b3157600080fd5b8460051b8087608086013760009084016080019081529316604090920191909152509392505050565b600081611b6957611b696119d6565b506000190190565b60008060408385031215611b8457600080fd5b8251611b8f8161162a565b9150611b9d6020840161198d565b90509250929050565b600082611bc357634e487b7160e01b600052601260045260246000fd5b500490565b60005b83811015611be3578181015183820152602001611bcb565b8381111561124e5750506000910152565b60008251611c06818460208701611bc8565b9190910192915050565b6020815260008251806020840152611c2f816040850160208701611bc8565b601f01601f1916919091016040019291505056fea2646970667358221220f4830379d6b440cf99204edb0f93fe60b5abf7add1013bbc67c1fa7c915939bc64736f6c63430008080033",
  "linkReferences": {},
  "deployedLinkReferences": {}
}