{
  "_format": "hh-sol-artifact-1",
  "contractName": "ElitePad",
  "sourceName": "contracts/ElitePad.sol",
  "abi": [
    {
      "anonymous": false,
      "inputs": [
        {
          "indexed": false,
          "internalType": "address",
          "name": "authPool",
          "type": "address"
        },
        {
          "indexed": false,
          "internalType": "uint256",
          "name": "chainId",
          "type": "uint256"
        }
      ],
      "name": "AddAuthPool",
      "type": "event"
    },
    {
      "anonymous": false,
      "inputs": [
        {
          "indexed": false,
          "internalType": "address",
          "name": "_authPool",
          "type": "address"
        },
        {
          "indexed": false,
          "internalType": "address",
          "name": "_raffleTicket",
          "type": "address"
        },
        {
          "indexed": false,
          "internalType": "address",
          "name": "_airdrop",
          "type": "address"
        },
        {
          "indexed": false,
          "internalType": "address",
          "name": "_weight",
          "type": "address"
        },
        {
          "indexed": false,
          "internalType": "address",
          "name": "_epochC",
          "type": "address"
        },
        {
          "indexed": false,
          "internalType": "address",
          "name": "_referenceC",
          "type": "address"
        },
        {
          "indexed": false,
          "internalType": "address",
          "name": "_access",
          "type": "address"
        },
        {
          "indexed": false,
          "internalType": "address",
          "name": "_bucketFactory",
          "type": "address"
        },
        {
          "indexed": false,
          "internalType": "address",
          "name": "_weth",
          "type": "address"
        }
      ],
      "name": "Initialize",
      "type": "event"
    },
    {
      "inputs": [],
      "name": "REFERENCE_BONUS_POINT",
      "outputs": [
        {
          "internalType": "uint256",
          "name": "",
          "type": "uint256"
        }
      ],
      "stateMutability": "view",
      "type": "function"
    },
    {
      "inputs": [],
      "name": "REFERENCE_DENOMINATOR",
      "outputs": [
        {
          "internalType": "uint256",
          "name": "",
          "type": "uint256"
        }
      ],
      "stateMutability": "view",
      "type": "function"
    },
    {
      "inputs": [],
      "name": "REFERENCE_VIP_BONUS_POINT",
      "outputs": [
        {
          "internalType": "uint256",
          "name": "",
          "type": "uint256"
        }
      ],
      "stateMutability": "view",
      "type": "function"
    },
    {
      "inputs": [],
      "name": "TICKET_VALIDITY_PERIOD",
      "outputs": [
        {
          "internalType": "uint256",
          "name": "",
          "type": "uint256"
        }
      ],
      "stateMutability": "view",
      "type": "function"
    },
    {
      "inputs": [],
      "name": "access",
      "outputs": [
        {
          "internalType": "contract Access",
          "name": "",
          "type": "address"
        }
      ],
      "stateMutability": "view",
      "type": "function"
    },
    {
      "inputs": [
        {
          "internalType": "address",
          "name": "token",
          "type": "address"
        },
        {
          "internalType": "uint256[]",
          "name": "tokenIds",
          "type": "uint256[]"
        },
        {
          "internalType": "address",
          "name": "tokenOwner",
          "type": "address"
        },
        {
          "internalType": "bytes32",
          "name": "referenceCode",
          "type": "bytes32"
        }
      ],
      "name": "addAuth",
      "outputs": [],
      "stateMutability": "nonpayable",
      "type": "function"
    },
    {
      "inputs": [],
      "name": "airdrop",
      "outputs": [
        {
          "internalType": "contract AirdropOne",
          "name": "",
          "type": "address"
        }
      ],
      "stateMutability": "view",
      "type": "function"
    },
    {
      "inputs": [],
      "name": "authPool",
      "outputs": [
        {
          "internalType": "contract AuthPool",
          "name": "",
          "type": "address"
        }
      ],
      "stateMutability": "view",
      "type": "function"
    },
    {
      "inputs": [],
      "name": "bucketFactory",
      "outputs": [
        {
          "internalType": "contract BucketFactory",
          "name": "",
          "type": "address"
        }
      ],
      "stateMutability": "view",
      "type": "function"
    },
    {
      "inputs": [],
      "name": "bucketPrice",
      "outputs": [
        {
          "internalType": "uint256",
          "name": "",
          "type": "uint256"
        }
      ],
      "stateMutability": "view",
      "type": "function"
    },
    {
      "inputs": [
        {
          "internalType": "address[]",
          "name": "tokens",
          "type": "address[]"
        }
      ],
      "name": "claim",
      "outputs": [],
      "stateMutability": "nonpayable",
      "type": "function"
    },
    {
      "inputs": [],
      "name": "claim",
      "outputs": [],
      "stateMutability": "nonpayable",
      "type": "function"
    },
    {
      "inputs": [
        {
          "internalType": "address[]",
          "name": "tokens",
          "type": "address[]"
        }
      ],
      "name": "claimAll",
      "outputs": [],
      "stateMutability": "nonpayable",
      "type": "function"
    },
    {
      "inputs": [
        {
          "internalType": "uint256",
          "name": "startEpoch",
          "type": "uint256"
        },
        {
          "internalType": "uint256",
          "name": "endEpoch",
          "type": "uint256"
        },
        {
          "internalType": "uint256",
          "name": "numPerRound",
          "type": "uint256"
        },
        {
          "internalType": "string",
          "name": "uri",
          "type": "string"
        }
      ],
      "name": "createBucket",
      "outputs": [
        {
          "internalType": "contract Bucket",
          "name": "",
          "type": "address"
        }
      ],
      "stateMutability": "nonpayable",
      "type": "function"
    },
    {
      "inputs": [
        {
          "internalType": "address",
          "name": "token",
          "type": "address"
        },
        {
          "internalType": "uint256[]",
          "name": "tokenIds",
          "type": "uint256[]"
        },
        {
          "internalType": "address",
          "name": "tokenOwner",
          "type": "address"
        }
      ],
      "name": "delAuth",
      "outputs": [],
      "stateMutability": "nonpayable",
      "type": "function"
    },
    {
      "inputs": [],
      "name": "epochC",
      "outputs": [
        {
          "internalType": "contract Epoch",
          "name": "",
          "type": "address"
        }
      ],
      "stateMutability": "view",
      "type": "function"
    },
    {
      "inputs": [
        {
          "internalType": "contract AuthPool",
          "name": "_authPool",
          "type": "address"
        },
        {
          "internalType": "contract RaffleTicket",
          "name": "_raffleTicket",
          "type": "address"
        },
        {
          "internalType": "contract AirdropOne",
          "name": "_airdrop",
          "type": "address"
        },
        {
          "internalType": "contract Weights",
          "name": "_weight",
          "type": "address"
        },
        {
          "internalType": "contract Epoch",
          "name": "_epochC",
          "type": "address"
        },
        {
          "internalType": "contract Reference",
          "name": "_referenceC",
          "type": "address"
        },
        {
          "internalType": "contract Access",
          "name": "_access",
          "type": "address"
        },
        {
          "internalType": "contract BucketFactory",
          "name": "_bucketFactory",
          "type": "address"
        },
        {
          "internalType": "contract IERC20Upgradeable",
          "name": "_weth",
          "type": "address"
        }
      ],
      "name": "initialize",
      "outputs": [],
      "stateMutability": "nonpayable",
      "type": "function"
    },
    {
      "inputs": [
        {
          "internalType": "address",
          "name": "",
          "type": "address"
        }
      ],
      "name": "pendingGoldenTickets",
      "outputs": [
        {
          "internalType": "uint256",
          "name": "",
          "type": "uint256"
        }
      ],
      "stateMutability": "view",
      "type": "function"
    },
    {
      "inputs": [
        {
          "internalType": "address",
          "name": "account",
          "type": "address"
        },
        {
          "internalType": "address[]",
          "name": "tokens",
          "type": "address[]"
        }
      ],
      "name": "pendingTickets",
      "outputs": [
        {
          "internalType": "uint256",
          "name": "sumTicket",
          "type": "uint256"
        }
      ],
      "stateMutability": "view",
      "type": "function"
    },
    {
      "inputs": [],
      "name": "raffleTicket",
      "outputs": [
        {
          "internalType": "contract RaffleTicket",
          "name": "",
          "type": "address"
        }
      ],
      "stateMutability": "view",
      "type": "function"
    },
    {
      "inputs": [],
      "name": "referenceC",
      "outputs": [
        {
          "internalType": "contract Reference",
          "name": "",
          "type": "address"
        }
      ],
      "stateMutability": "view",
      "type": "function"
    },
    {
      "inputs": [
        {
          "internalType": "uint256",
          "name": "price",
          "type": "uint256"
        }
      ],
      "name": "setBucketPrice",
      "outputs": [],
      "stateMutability": "nonpayable",
      "type": "function"
    },
    {
      "inputs": [
        {
          "internalType": "address",
          "name": "",
          "type": "address"
        },
        {
          "internalType": "uint256",
          "name": "",
          "type": "uint256"
        }
      ],
      "name": "tokenAirdroped",
      "outputs": [
        {
          "internalType": "bool",
          "name": "",
          "type": "bool"
        }
      ],
      "stateMutability": "view",
      "type": "function"
    },
    {
      "inputs": [
        {
          "internalType": "address",
          "name": "",
          "type": "address"
        },
        {
          "internalType": "uint256",
          "name": "",
          "type": "uint256"
        }
      ],
      "name": "userClaimed",
      "outputs": [
        {
          "internalType": "uint256",
          "name": "",
          "type": "uint256"
        }
      ],
      "stateMutability": "view",
      "type": "function"
    },
    {
      "inputs": [],
      "name": "weights",
      "outputs": [
        {
          "internalType": "contract Weights",
          "name": "",
          "type": "address"
        }
      ],
      "stateMutability": "view",
      "type": "function"
    },
    {
      "inputs": [],
      "name": "weth",
      "outputs": [
        {
          "internalType": "contract IERC20Upgradeable",
          "name": "",
          "type": "address"
        }
      ],
      "stateMutability": "view",
      "type": "function"
    },
    {
      "inputs": [],
      "name": "withdrawWETH",
      "outputs": [],
      "stateMutability": "nonpayable",
      "type": "function"
    }
  ],
  "bytecode": "0x608060405234801561001057600080fd5b50612296806100206000396000f3fe608060405234801561001057600080fd5b506004361061015f5760003560e01c806303bbd424146101645780631bdaccd8146101795780631e111751146101945780631e2de0d1146101b457806325f86e91146101c7578063318d9e5d146101cf5780633884d635146101e25780633d636015146102025780633fc8cef31461020b578063464adac21461021e57806348d2f0db146102275780634c02f62e1461023a5780634e71d92d1461024257806364aed6011461024a57806371907f171461025d578063986fe9bd14610270578063c649f04014610283578063cb5a872d14610296578063ccf010d8146102a9578063d57b10db146102c2578063db4dce70146102cb578063dbb0f6f3146102de578063dc6c867b1461031c578063e2df01501461032f578063e51e455914610342578063e9ae950b14610355578063ef88aff114610368578063f5e95acb1461037b578063fcbf8b241461038e575b600080fd5b6101776101723660046119d1565b6103b9565b005b610181600781565b6040519081526020015b60405180910390f35b6101816101a23660046119ff565b600b6020526000908152604090205481565b6101776101c2366004611a67565b610463565b61018160c881565b6101776101dd366004611a67565b610479565b6001546101f5906001600160a01b031681565b60405161018b9190611aa8565b61018160085481565b6007546101f5906001600160a01b031681565b61018161012c81565b610177610235366004611abc565b6107a4565b6101776108cc565b610177610a03565b610181610258366004611b3f565b610a91565b6005546101f5906001600160a01b031681565b6006546101f5906001600160a01b031681565b6002546101f5906001600160a01b031681565b6003546101f5906001600160a01b031681565b6000546101f5906201000090046001600160a01b031681565b61018161271081565b6101776102d9366004611b93565b610ce1565b61030c6102ec366004611bfa565b600c60209081526000928352604080842090915290825290205460ff1681565b604051901515815260200161018b565b6004546101f5906001600160a01b031681565b61017761033d366004611c26565b610da2565b610177610350366004611cb1565b610f2f565b6101f5610363366004611d20565b61100c565b6009546101f5906001600160a01b031681565b610177610389366004611dac565b6110c2565b61018161039c366004611bfa565b600a60209081526000928352604080842090915290825290205481565b600554604051630935e01b60e21b81526001600160a01b03909116906324d7806c906103e9903390600401611aa8565b60206040518083038186803b15801561040157600080fd5b505afa158015610415573d6000803e3d6000fd5b505050506040513d601f19601f820116820180604052508101906104399190611e7d565b61045e5760405162461bcd60e51b815260040161045590611e98565b60405180910390fd5b600855565b61046d8282610479565b610475610a03565b5050565b6003546040805163900cf0cf60e01b815290516000926001600160a01b03169163900cf0cf916004808301926020929190829003018186803b1580156104be57600080fd5b505afa1580156104d2573d6000803e3d6000fd5b505050506040513d601f19601f820116820180604052508101906104f69190611ebb565b90506000610505600183611eea565b90506000805b8481101561067e57600086868381811061052757610527611f01565b905060200201602081019061053c91906119ff565b6002546040516302ac50af60e41b81529192506000916001600160a01b0390911690632ac50af090610572908590600401611aa8565b60206040518083038186803b15801561058a57600080fd5b505afa15801561059e573d6000803e3d6000fd5b505050506040513d601f19601f820116820180604052508101906105c29190611ebb565b905080156106695760095460405163e93119d960e01b81526000916001600160a01b03169063e93119d9906105ff90339087908b90600401611f17565b60206040518083038186803b15801561061757600080fd5b505afa15801561062b573d6000803e3d6000fd5b505050506040513d601f19601f8201168201806040525081019061064f9190611ebb565b905061065b8282611f3b565b6106659086611f5a565b9450505b5050808061067690611f72565b91505061050b565b50801561079d57336000908152600a60209081526040808320858452909152902054156106e45760405162461bcd60e51b81526020600482015260146024820152731d5cd95c88185b1c9958591e4818db185a5b595960621b6044820152606401610455565b336000818152600a602090815260408083208684529091528120839055546201000090046001600160a01b03169063a647e8ec9085846001610727600784611f5a565b6107319190611eea565b6040516001600160e01b031960e087901b1681526001600160a01b039094166004850152602484019290925260448301526064820152608401600060405180830381600087803b15801561078457600080fd5b505af1158015610798573d6000803e3d6000fd5b505050505b5050505050565b6005546040516335d2155560e11b81526001600160a01b0390911690636ba42aaa906107d4903390600401611aa8565b60206040518083038186803b1580156107ec57600080fd5b505afa158015610800573d6000803e3d6000fd5b505050506040513d601f19601f820116820180604052508101906108249190611e7d565b806108375750336001600160a01b038216145b6108535760405162461bcd60e51b815260040161045590611f8d565b60005b848110156108c4576108b286868381811061087357610873611f01565b905060200201602081019061088891906119ff565b85858481811061089a5761089a611f01565b90506020028101906108ac9190611fc0565b8561129d565b806108bc81611f72565b915050610856565b505050505050565b600554604051630935e01b60e21b81526001600160a01b03909116906324d7806c906108fc903390600401611aa8565b60206040518083038186803b15801561091457600080fd5b505afa158015610928573d6000803e3d6000fd5b505050506040513d601f19601f8201168201806040525081019061094c9190611e7d565b6109685760405162461bcd60e51b815260040161045590611e98565b6007546040516370a0823160e01b8152610a019133916001600160a01b03909116906370a082319061099e903090600401611aa8565b60206040518083038186803b1580156109b657600080fd5b505afa1580156109ca573d6000803e3d6000fd5b505050506040513d601f19601f820116820180604052508101906109ee9190611ebb565b6007546001600160a01b0316919061130b565b565b336000908152600b60205260409020548015610a8e57336000818152600b6020526040808220829055905490516340c10f1960e01b8152620100009091046001600160a01b0316916340c10f1991610a6091908590600401612009565b600060405180830381600087803b158015610a7a57600080fd5b505af115801561079d573d6000803e3d6000fd5b50565b600080600360009054906101000a90046001600160a01b03166001600160a01b031663900cf0cf6040518163ffffffff1660e01b815260040160206040518083038186803b158015610ae257600080fd5b505afa158015610af6573d6000803e3d6000fd5b505050506040513d601f19601f82011682018060405250810190610b1a9190611ebb565b90506000610b29600183611eea565b6001600160a01b0387166000908152600a6020908152604080832084845290915290205490915015610b6057600092505050610cda565b60005b84811015610cd6576000868683818110610b7f57610b7f611f01565b9050602002016020810190610b9491906119ff565b6002546040516302ac50af60e41b81529192506000916001600160a01b0390911690632ac50af090610bca908590600401611aa8565b60206040518083038186803b158015610be257600080fd5b505afa158015610bf6573d6000803e3d6000fd5b505050506040513d601f19601f82011682018060405250810190610c1a9190611ebb565b90508015610cc15760095460405163e93119d960e01b81526000916001600160a01b03169063e93119d990610c57908d9087908a90600401611f17565b60206040518083038186803b158015610c6f57600080fd5b505afa158015610c83573d6000803e3d6000fd5b505050506040513d601f19601f82011682018060405250810190610ca79190611ebb565b9050610cb38282611f3b565b610cbd9088611f5a565b9650505b50508080610cce90611f72565b915050610b63565b5050505b9392505050565b6005546040516335d2155560e11b81526001600160a01b0390911690636ba42aaa90610d11903390600401611aa8565b60206040518083038186803b158015610d2957600080fd5b505afa158015610d3d573d6000803e3d6000fd5b505050506040513d601f19601f82011682018060405250810190610d619190611e7d565b80610d745750336001600160a01b038216145b610d905760405162461bcd60e51b815260040161045590611f8d565b610d9c8484848461129d565b50505050565b600554604051630a83aaa960e31b81526001600160a01b039091169063541d554890610dd2903390600401611aa8565b60206040518083038186803b158015610dea57600080fd5b505afa158015610dfe573d6000803e3d6000fd5b505050506040513d601f19601f82011682018060405250810190610e229190611e7d565b610e3e5760405162461bcd60e51b815260040161045590612022565b848314610e805760405162461bcd60e51b815260206004820152601060248201526f1b195b99dd1a08191a5999995c995b9d60821b6044820152606401610455565b60005b85811015610f2657610f14878783818110610ea057610ea0611f01565b9050602002016020810190610eb591906119ff565b868684818110610ec757610ec7611f01565b9050602002810190610ed99190611fc0565b808060200260200160405190810160405280939291908181526020018383602002808284376000920191909152508892508791506113669050565b80610f1e81611f72565b915050610e83565b50505050505050565b600554604051630a83aaa960e31b81526001600160a01b039091169063541d554890610f5f903390600401611aa8565b60206040518083038186803b158015610f7757600080fd5b505afa158015610f8b573d6000803e3d6000fd5b505050506040513d601f19601f82011682018060405250810190610faf9190611e7d565b610fcb5760405162461bcd60e51b815260040161045590612022565b61079d858585808060200260200160405190810160405280939291908181526020018383602002808284376000920191909152508792508691506113669050565b60085460075460009161102c916001600160a01b031690339030906115e8565b600654604051633206a19360e21b81526001600160a01b039091169063c81a864c906110669033908a908a908a908a908a90600401612047565b602060405180830381600087803b15801561108057600080fd5b505af1158015611094573d6000803e3d6000fd5b505050506040513d601f19601f820116820180604052508101906110b8919061209a565b9695505050505050565b600054610100900460ff166110dd5760005460ff16156110e5565b6110e5611609565b6111485760405162461bcd60e51b815260206004820152602e60248201527f496e697469616c697a61626c653a20636f6e747261637420697320616c72656160448201526d191e481a5b9a5d1a585b1a5e995960921b6064820152608401610455565b600054610100900460ff1615801561116a576000805461ffff19166101011790555b600980546001600160a01b038c81166001600160a01b03199283168117909355600080548d831662010000810262010000600160b01b031990921691909117909155600180548d84169085168117909155600280548d85169086168117909155600380548d86169087168117909155600480548d87169088168117909155600580548d88169089168117909155600680548d8916908a16811790915560078054988d1698909916881790985560408051998a5260208a0196909652948801939093526060870191909152608086015260a085015260c084015260e08301919091526101008201527f0552a30f2930f88d2de62ab23ac2c395e9da199f4b08ac1a8c60c3faa9bfa760906101200160405180910390a18015611291576000805461ff00191690555b50505050505050505050565b600954604051630db4dce760e41b81526001600160a01b039091169063db4dce70906112d39087908790879087906004016120b7565b600060405180830381600087803b1580156112ed57600080fd5b505af1158015611301573d6000803e3d6000fd5b5050505050505050565b6113618363a9059cbb60e01b848460405160240161132a929190612009565b60408051601f198184030181529190526020810180516001600160e01b03166001600160e01b03199093169290921790915261161a565b505050565b6009546040516383a048b760e01b81526001600160a01b03909116906383a048b79061139a90879087908790600401612112565b600060405180830381600087803b1580156113b457600080fd5b505af11580156113c8573d6000803e3d6000fd5b5050600480546040516391d3924760e01b81526001600160a01b0390911693506391d3924792506113fb91869101611aa8565b600060405180830381600087803b15801561141557600080fd5b505af1158015611429573d6000803e3d6000fd5b50506002546040516302ac50af60e41b8152600093506001600160a01b039091169150632ac50af090611460908890600401611aa8565b60206040518083038186803b15801561147857600080fd5b505afa15801561148c573d6000803e3d6000fd5b505050506040513d601f19601f820116820180604052508101906114b09190611ebb565b9050801561079d576001546001600160a01b03161561152c576001546040516321860a0560e01b81526001600160a01b03909116906321860a05906114f9908690600401611aa8565b600060405180830381600087803b15801561151357600080fd5b505af1158015611527573d6000803e3d6000fd5b505050505b835160005b85518110156115db57600086828151811061154e5761154e611f01565b6020908102919091018101516001600160a01b038a166000908152600c83526040808220838352909352919091205490915060ff161561159b578261159281612177565b935050506115c9565b6001600160a01b0388166000908152600c6020908152604080832093835292905220805460ff191660011790555b806115d381611f72565b915050611531565b506108c4828286866116ec565b610d9c846323b872dd60e01b85858560405160240161132a93929190611f17565b600061161430611843565b15905090565b600061166f826040518060400160405280602081526020017f5361666545524332303a206c6f772d6c6576656c2063616c6c206661696c6564815250856001600160a01b03166118529092919063ffffffff16565b805190915015611361578080602001905181019061168d9190611e7d565b6113615760405162461bcd60e51b815260206004820152602a60248201527f5361666545524332303a204552433230206f7065726174696f6e20646964206e6044820152691bdd081cdd58d8d9595960b21b6064820152608401610455565b60006116f88486611f3b565b600480546040516376453cf160e11b815291820185905291925060009182916001600160a01b039091169063ec8a79e290602401604080518083038186803b15801561174357600080fd5b505afa158015611757573d6000803e3d6000fd5b505050506040513d601f19601f8201168201806040525081019061177b919061218e565b90925090506001600160a01b0382161561180d5760008161179d5760c86117a1565b61012c5b90506127106117b08286611f3b565b6117ba91906121c3565b6117c49085611f5a565b93506127106117d460c886611f3b565b6117de91906121c3565b6001600160a01b0384166000908152600b602052604081208054909190611806908490611f5a565b9091555050505b6001600160a01b0385166000908152600b602052604081208054859290611835908490611f5a565b909155505050505050505050565b6001600160a01b03163b151590565b60606118618484600085611869565b949350505050565b6060824710156118ca5760405162461bcd60e51b815260206004820152602660248201527f416464726573733a20696e73756666696369656e742062616c616e636520666f6044820152651c8818d85b1b60d21b6064820152608401610455565b6118d385611843565b61191f5760405162461bcd60e51b815260206004820152601d60248201527f416464726573733a2063616c6c20746f206e6f6e2d636f6e74726163740000006044820152606401610455565b600080866001600160a01b0316858760405161193b9190612211565b60006040518083038185875af1925050503d8060008114611978576040519150601f19603f3d011682016040523d82523d6000602084013e61197d565b606091505b509150915061198d828286611998565b979650505050505050565b606083156119a7575081610cda565b8251156119b75782518084602001fd5b8160405162461bcd60e51b8152600401610455919061222d565b6000602082840312156119e357600080fd5b5035919050565b6001600160a01b0381168114610a8e57600080fd5b600060208284031215611a1157600080fd5b8135610cda816119ea565b60008083601f840112611a2e57600080fd5b5081356001600160401b03811115611a4557600080fd5b6020830191508360208260051b8501011115611a6057600080fd5b9250929050565b60008060208385031215611a7a57600080fd5b82356001600160401b03811115611a9057600080fd5b611a9c85828601611a1c565b90969095509350505050565b6001600160a01b0391909116815260200190565b600080600080600060608688031215611ad457600080fd5b85356001600160401b0380821115611aeb57600080fd5b611af789838a01611a1c565b90975095506020880135915080821115611b1057600080fd5b50611b1d88828901611a1c565b9094509250506040860135611b31816119ea565b809150509295509295909350565b600080600060408486031215611b5457600080fd5b8335611b5f816119ea565b925060208401356001600160401b03811115611b7a57600080fd5b611b8686828701611a1c565b9497909650939450505050565b60008060008060608587031215611ba957600080fd5b8435611bb4816119ea565b935060208501356001600160401b03811115611bcf57600080fd5b611bdb87828801611a1c565b9094509250506040850135611bef816119ea565b939692955090935050565b60008060408385031215611c0d57600080fd5b8235611c18816119ea565b946020939093013593505050565b60008060008060008060808789031215611c3f57600080fd5b86356001600160401b0380821115611c5657600080fd5b611c628a838b01611a1c565b90985096506020890135915080821115611c7b57600080fd5b50611c8889828a01611a1c565b9095509350506040870135611c9c816119ea565b80925050606087013590509295509295509295565b600080600080600060808688031215611cc957600080fd5b8535611cd4816119ea565b945060208601356001600160401b03811115611cef57600080fd5b611cfb88828901611a1c565b9095509350506040860135611d0f816119ea565b949793965091946060013592915050565b600080600080600060808688031215611d3857600080fd5b85359450602086013593506040860135925060608601356001600160401b0380821115611d6457600080fd5b818801915088601f830112611d7857600080fd5b813581811115611d8757600080fd5b896020828501011115611d9957600080fd5b9699959850939650602001949392505050565b60008060008060008060008060006101208a8c031215611dcb57600080fd5b8935611dd6816119ea565b985060208a0135611de6816119ea565b975060408a0135611df6816119ea565b965060608a0135611e06816119ea565b955060808a0135611e16816119ea565b945060a08a0135611e26816119ea565b935060c08a0135611e36816119ea565b925060e08a0135611e46816119ea565b91506101008a0135611e57816119ea565b809150509295985092959850929598565b80518015158114611e7857600080fd5b919050565b600060208284031215611e8f57600080fd5b610cda82611e68565b60208082526009908201526837b7363ca0b236b4b760b91b604082015260600190565b600060208284031215611ecd57600080fd5b5051919050565b634e487b7160e01b600052601160045260246000fd5b600082821015611efc57611efc611ed4565b500390565b634e487b7160e01b600052603260045260246000fd5b6001600160a01b039384168152919092166020820152604081019190915260600190565b6000816000190483118215151615611f5557611f55611ed4565b500290565b60008219821115611f6d57611f6d611ed4565b500190565b6000600019821415611f8657611f86611ed4565b5060010190565b60208082526019908201527837b7363c9035b2b2b832b91037b9103a37b5b2b727bbb732b960391b604082015260600190565b6000808335601e19843603018112611fd757600080fd5b8301803591506001600160401b03821115611ff157600080fd5b6020019150600581901b3603821315611a6057600080fd5b6001600160a01b03929092168252602082015260400190565b6020808252600b908201526a37b7363ca932b630bcb2b960a91b604082015260600190565b60018060a01b038716815285602082015284604082015283606082015260a060808201528160a0820152818360c0830137600081830160c090810191909152601f909201601f1916010195945050505050565b6000602082840312156120ac57600080fd5b8151610cda816119ea565b6001600160a01b03858116825260606020830181905282018490526000906001600160fb1b038511156120e957600080fd5b8460051b8087608086013760009084016080019081529316604090920191909152509392505050565b6001600160a01b038481168252606060208084018290528551918401829052600092868201929091906080860190855b8181101561215e57855183529483019491830191600101612142565b5050809450505080851660408501525050949350505050565b60008161218657612186611ed4565b506000190190565b600080604083850312156121a157600080fd5b82516121ac816119ea565b91506121ba60208401611e68565b90509250929050565b6000826121e057634e487b7160e01b600052601260045260246000fd5b500490565b60005b838110156122005781810151838201526020016121e8565b83811115610d9c5750506000910152565b600082516122238184602087016121e5565b9190910192915050565b602081526000825180602084015261224c8160408501602087016121e5565b601f01601f1916919091016040019291505056fea26469706673582212201fe7e4653d19d29fe304b842f44748662ca82948e6d36120f95d16ec8db6b07964736f6c63430008080033",
  "linkReferences": {},
  "deployedLinkReferences": {}
}