{
  "_format": "hh-sol-artifact-1",
  "contractName": "AuthPool",
  "sourceName": "contracts/AuthPool.sol",
  "abi": [
    {
      "anonymous": false,
      "inputs": [
        {
          "indexed": false,
          "internalType": "address",
          "name": "token",
          "type": "address"
        },
        {
          "indexed": false,
          "internalType": "uint256[]",
          "name": "tokenIds",
          "type": "uint256[]"
        },
        {
          "indexed": false,
          "internalType": "address",
          "name": "tokenOwner",
          "type": "address"
        }
      ],
      "name": "AddAuth",
      "type": "event"
    },
    {
      "anonymous": false,
      "inputs": [
        {
          "indexed": false,
          "internalType": "address",
          "name": "token",
          "type": "address"
        },
        {
          "indexed": false,
          "internalType": "uint256[]",
          "name": "tokenIds",
          "type": "uint256[]"
        }
      ],
      "name": "DelAuth",
      "type": "event"
    },
    {
      "inputs": [],
      "name": "access",
      "outputs": [
        {
          "internalType": "contract Access",
          "name": "",
          "type": "address"
        }
      ],
      "stateMutability": "view",
      "type": "function"
    },
    {
      "inputs": [
        {
          "internalType": "address",
          "name": "token",
          "type": "address"
        },
        {
          "internalType": "uint256[]",
          "name": "tokenIds",
          "type": "uint256[]"
        },
        {
          "internalType": "address",
          "name": "tokenOwner",
          "type": "address"
        }
      ],
      "name": "addAuth",
      "outputs": [],
      "stateMutability": "nonpayable",
      "type": "function"
    },
    {
      "inputs": [
        {
          "internalType": "address",
          "name": "",
          "type": "address"
        },
        {
          "internalType": "uint256",
          "name": "",
          "type": "uint256"
        }
      ],
      "name": "auths",
      "outputs": [
        {
          "internalType": "address",
          "name": "",
          "type": "address"
        }
      ],
      "stateMutability": "view",
      "type": "function"
    },
    {
      "inputs": [
        {
          "internalType": "address",
          "name": "account",
          "type": "address"
        },
        {
          "internalType": "address",
          "name": "token",
          "type": "address"
        },
        {
          "internalType": "uint256",
          "name": "epoch",
          "type": "uint256"
        }
      ],
      "name": "balanceOf",
      "outputs": [
        {
          "internalType": "uint256",
          "name": "",
          "type": "uint256"
        }
      ],
      "stateMutability": "view",
      "type": "function"
    },
    {
      "inputs": [
        {
          "internalType": "address",
          "name": "account",
          "type": "address"
        },
        {
          "internalType": "address",
          "name": "token",
          "type": "address"
        }
      ],
      "name": "balanceOf",
      "outputs": [
        {
          "internalType": "uint256",
          "name": "",
          "type": "uint256"
        }
      ],
      "stateMutability": "view",
      "type": "function"
    },
    {
      "inputs": [],
      "name": "chainId",
      "outputs": [
        {
          "internalType": "uint256",
          "name": "",
          "type": "uint256"
        }
      ],
      "stateMutability": "view",
      "type": "function"
    },
    {
      "inputs": [
        {
          "internalType": "address",
          "name": "token",
          "type": "address"
        },
        {
          "internalType": "uint256[]",
          "name": "tokenIds",
          "type": "uint256[]"
        },
        {
          "internalType": "address",
          "name": "tokenOwner",
          "type": "address"
        }
      ],
      "name": "delAuth",
      "outputs": [],
      "stateMutability": "nonpayable",
      "type": "function"
    },
    {
      "inputs": [],
      "name": "epochC",
      "outputs": [
        {
          "internalType": "contract Epoch",
          "name": "",
          "type": "address"
        }
      ],
      "stateMutability": "view",
      "type": "function"
    },
    {
      "inputs": [
        {
          "internalType": "contract Access",
          "name": "_access",
          "type": "address"
        },
        {
          "internalType": "contract Epoch",
          "name": "_epoch",
          "type": "address"
        },
        {
          "internalType": "uint256",
          "name": "_chainId",
          "type": "uint256"
        }
      ],
      "name": "initialize",
      "outputs": [],
      "stateMutability": "nonpayable",
      "type": "function"
    }
  ],
  "bytecode": "0x608060405234801561001057600080fd5b50610fa0806100206000396000f3fe608060405234801561001057600080fd5b50600436106100835760003560e01c80631794bb3c1461008857806371907f171461009d57806383a048b7146100d3578063861a17f1146100e65780639a8a05921461011a578063cb5a872d14610131578063db4dce7014610144578063e93119d914610157578063f7888aec1461016a575b600080fd5b61009b610096366004610c51565b61017d565b005b6000546100b6906201000090046001600160a01b031681565b6040516001600160a01b0390911681526020015b60405180910390f35b61009b6100e1366004610c92565b610284565b6100b66100f4366004610d2c565b60036020908152600092835260408084209091529082529020546001600160a01b031681565b61012360025481565b6040519081526020016100ca565b6001546100b6906001600160a01b031681565b61009b610152366004610c92565b610526565b610123610165366004610c51565b6107cf565b610123610178366004610d58565b610829565b600054610100900460ff166101985760005460ff161561019c565b303b155b6102045760405162461bcd60e51b815260206004820152602e60248201527f496e697469616c697a61626c653a20636f6e747261637420697320616c72656160448201526d191e481a5b9a5d1a585b1a5e995960921b60648201526084015b60405180910390fd5b600054610100900460ff16158015610226576000805461ffff19166101011790555b6000805462010000600160b01b031916620100006001600160a01b038781169190910291909117909155600180546001600160a01b0319169185169190911790556002829055801561027e576000805461ff00191690555b50505050565b600060029054906101000a90046001600160a01b03166001600160a01b031663ca19e44f6040518163ffffffff1660e01b815260040160206040518083038186803b1580156102d257600080fd5b505afa1580156102e6573d6000803e3d6000fd5b505050506040513d601f19601f8201168201806040525081019061030a9190610d91565b6001600160a01b0316336001600160a01b03161461033a5760405162461bcd60e51b81526004016101fb90610dae565b60005b8281101561041857600084848381811061035957610359610dd4565b6001600160a01b038981166000908152600360209081526040808320948202969096013580835293905293909320549093509091161590506103cb5760405162461bcd60e51b815260206004820152600b60248201526a3bb937b733903a37b5b2b760a91b60448201526064016101fb565b6001600160a01b0386811660009081526003602090815260408083209483529390529190912080546001600160a01b0319169184169190911790558061041081610e00565b91505061033d565b506001546040805163900cf0cf60e01b815290516000926001600160a01b03169163900cf0cf916004808301926020929190829003018186803b15801561045e57600080fd5b505afa158015610472573d6000803e3d6000fd5b505050506040513d601f19601f820116820180604052508101906104969190610e1b565b6001600160a01b038084166000908152600460209081526040808320938a168352929052209091506104df6104ca8361086a565b6108d36104d6876108e6565b8492919061094f565b50507fd7c51b17ba0c0575fc2088f498c715ee182594e046f1b10393a9e45e4882df39868686866040516105169493929190610e6a565b60405180910390a1505050505050565b600060029054906101000a90046001600160a01b03166001600160a01b031663ca19e44f6040518163ffffffff1660e01b815260040160206040518083038186803b15801561057457600080fd5b505afa158015610588573d6000803e3d6000fd5b505050506040513d601f19601f820116820180604052508101906105ac9190610d91565b6001600160a01b0316336001600160a01b0316146105dc5760405162461bcd60e51b81526004016101fb90610dae565b60005b828110156106dc576001600160a01b03851660009081526003602052604081208186868581811061061257610612610dd4565b60209081029290920135835250810191909152604001600020546001600160a01b039081169150831681146106775760405162461bcd60e51b815260206004820152600b60248201526a3bb937b7339037bbb732b960a91b60448201526064016101fb565b6001600160a01b0386166000908152600360205260408120908686858181106106a2576106a2610dd4565b6020908102929092013583525081019190915260400160002080546001600160a01b031916905550806106d481610e00565b9150506105df565b506001546040805163900cf0cf60e01b815290516000926001600160a01b03169163900cf0cf916004808301926020929190829003018186803b15801561072257600080fd5b505afa158015610736573d6000803e3d6000fd5b505050506040513d601f19601f8201168201806040525081019061075a9190610e1b565b6001600160a01b038084166000908152600460209081526040808320938a1683529290522090915061079a61078e8361086a565b61098a6104d6876108e6565b50507f4fa26513b3acc48b35217d07f4b32be9f7115e468bb6061a405ab01ea93cadb486868660405161051693929190610ea1565b6001600160a01b03808416600090815260046020908152604080832093861683529290529081206108176108028461086a565b63ffffffff168261099690919063ffffffff16565b6001600160e01b031695945050505050565b6001600160a01b038083166000908152600460209081526040808320938516835292905290812061085981610a4c565b6001600160e01b0316949350505050565b600063ffffffff8211156108cf5760405162461bcd60e51b815260206004820152602660248201527f53616665436173743a2076616c756520646f65736e27742066697420696e203360448201526532206269747360d01b60648201526084016101fb565b5090565b60006108df8284610ec6565b9392505050565b60006001600160e01b038211156108cf5760405162461bcd60e51b815260206004820152602760248201527f53616665436173743a2076616c756520646f65736e27742066697420696e20326044820152663234206269747360c81b60648201526084016101fb565b600080610972868661096d6109638a610a4c565b878963ffffffff16565b610a9d565b6001600160e01b039182169891169650945050505050565b60006108df8284610ef1565b8154600090815b818110156109fd5760006109b18284610c1e565b9050848660000182815481106109c9576109c9610dd4565b60009182526020909120015463ffffffff1611156109e9578092506109f7565b6109f4816001610f19565b91505b5061099d565b8115610a405784610a0f600184610f31565b81548110610a1f57610a1f610dd4565b600091825260209091200154600160201b90046001600160e01b0316610a43565b60005b95945050505050565b80546000908015610a945782610a63600183610f31565b81548110610a7357610a73610dd4565b600091825260209091200154600160201b90046001600160e01b03166108df565b60009392505050565b8254600090819081610aae87610a4c565b9050600082118015610af2575063ffffffff861687610ace600185610f31565b81548110610ade57610ade610dd4565b60009182526020909120015463ffffffff16145b15610b4a578487610b04600185610f31565b81548110610b1457610b14610dd4565b9060005260206000200160000160046101000a8154816001600160e01b0302191690836001600160e01b03160217905550610c12565b811580610b89575063ffffffff861687610b65600185610f31565b81548110610b7557610b75610dd4565b60009182526020909120015463ffffffff16105b610bc35760405162461bcd60e51b815260206004820152600b60248201526a0eee4dedcce40cae0dec6d60ab1b60448201526064016101fb565b6040805180820190915263ffffffff80881682526001600160e01b0380881660208085019182528b54600181018d5560008d81529190912094519151909216600160201b029216919091179101555b96939550929350505050565b6000610c2d6002848418610f48565b6108df90848416610f19565b6001600160a01b0381168114610c4e57600080fd5b50565b600080600060608486031215610c6657600080fd5b8335610c7181610c39565b92506020840135610c8181610c39565b929592945050506040919091013590565b60008060008060608587031215610ca857600080fd5b8435610cb381610c39565b935060208501356001600160401b0380821115610ccf57600080fd5b818701915087601f830112610ce357600080fd5b813581811115610cf257600080fd5b8860208260051b8501011115610d0757600080fd5b6020830195508094505050506040850135610d2181610c39565b939692955090935050565b60008060408385031215610d3f57600080fd5b8235610d4a81610c39565b946020939093013593505050565b60008060408385031215610d6b57600080fd5b8235610d7681610c39565b91506020830135610d8681610c39565b809150509250929050565b600060208284031215610da357600080fd5b81516108df81610c39565b6020808252600c908201526b1bdb9b1e515b1a5d1954185960a21b604082015260600190565b634e487b7160e01b600052603260045260246000fd5b634e487b7160e01b600052601160045260246000fd5b6000600019821415610e1457610e14610dea565b5060010190565b600060208284031215610e2d57600080fd5b5051919050565b81835260006001600160fb1b03831115610e4d57600080fd5b8260051b8083602087013760009401602001938452509192915050565b600060018060a01b03808716835260606020840152610e8d606084018688610e34565b915080841660408401525095945050505050565b6001600160a01b0384168152604060208201819052600090610a439083018486610e34565b60006001600160e01b03828116848216808303821115610ee857610ee8610dea565b01949350505050565b60006001600160e01b0383811690831681811015610f1157610f11610dea565b039392505050565b60008219821115610f2c57610f2c610dea565b500190565b600082821015610f4357610f43610dea565b500390565b600082610f6557634e487b7160e01b600052601260045260246000fd5b50049056fea26469706673582212200ede48eee3de16ff5207043bb98e85eee40c9a4f088164557c24bdd24d02d98864736f6c63430008080033",
  "linkReferences": {},
  "deployedLinkReferences": {}
}