{
  "_format": "hh-sol-artifact-1",
  "contractName": "Weights",
  "sourceName": "contracts/Weights.sol",
  "abi": [
    {
      "anonymous": false,
      "inputs": [
        {
          "indexed": false,
          "internalType": "uint256",
          "name": "optEpoch",
          "type": "uint256"
        },
        {
          "indexed": false,
          "internalType": "uint256",
          "name": "epoch",
          "type": "uint256"
        },
        {
          "indexed": false,
          "internalType": "address[]",
          "name": "tokens",
          "type": "address[]"
        },
        {
          "indexed": false,
          "internalType": "uint256[]",
          "name": "weights",
          "type": "uint256[]"
        }
      ],
      "name": "UpdateWeights",
      "type": "event"
    },
    {
      "inputs": [],
      "name": "access",
      "outputs": [
        {
          "internalType": "contract Access",
          "name": "",
          "type": "address"
        }
      ],
      "stateMutability": "view",
      "type": "function"
    },
    {
      "inputs": [],
      "name": "epochC",
      "outputs": [
        {
          "internalType": "contract Epoch",
          "name": "",
          "type": "address"
        }
      ],
      "stateMutability": "view",
      "type": "function"
    },
    {
      "inputs": [
        {
          "internalType": "uint256",
          "name": "",
          "type": "uint256"
        }
      ],
      "name": "epochWeights",
      "outputs": [
        {
          "internalType": "uint256",
          "name": "epoch",
          "type": "uint256"
        }
      ],
      "stateMutability": "view",
      "type": "function"
    },
    {
      "inputs": [
        {
          "internalType": "address",
          "name": "token",
          "type": "address"
        }
      ],
      "name": "getWeights",
      "outputs": [
        {
          "internalType": "uint256",
          "name": "",
          "type": "uint256"
        }
      ],
      "stateMutability": "view",
      "type": "function"
    },
    {
      "inputs": [
        {
          "internalType": "contract Access",
          "name": "_access",
          "type": "address"
        },
        {
          "internalType": "contract Epoch",
          "name": "_epochC",
          "type": "address"
        }
      ],
      "name": "initialize",
      "outputs": [],
      "stateMutability": "nonpayable",
      "type": "function"
    },
    {
      "inputs": [
        {
          "internalType": "uint256",
          "name": "epoch",
          "type": "uint256"
        },
        {
          "internalType": "address[]",
          "name": "tokens",
          "type": "address[]"
        },
        {
          "internalType": "uint256[]",
          "name": "_weights",
          "type": "uint256[]"
        }
      ],
      "name": "updateWeights",
      "outputs": [],
      "stateMutability": "nonpayable",
      "type": "function"
    }
  ],
  "bytecode": "0x608060405234801561001057600080fd5b5061099c806100206000396000f3fe608060405234801561001057600080fd5b50600436106100625760003560e01c806326950d79146100675780632ac50af01461008d57806331f1b6ab146100a0578063485cc955146100b557806371907f17146100c8578063cb5a872d146100ee575b600080fd5b61007a6100753660046106bd565b610101565b6040519081526020015b60405180910390f35b61007a61009b3660046106ee565b610127565b6100b36100ae36600461075d565b610264565b005b6100b36100c33660046107d6565b6105c1565b6000546100e1906201000090046001600160a01b031681565b604051610084919061080f565b6001546100e1906001600160a01b031681565b6002818154811061011157600080fd5b6000918252602090912060029091020154905081565b6002546000908061013b5750600092915050565b6001546040805163900cf0cf60e01b815290516000926001600160a01b03169163900cf0cf916004808301926020929190829003018186803b15801561018057600080fd5b505afa158015610194573d6000803e3d6000fd5b505050506040513d601f19601f820116820180604052508101906101b89190610823565b905060008060026101ca600186610852565b815481106101da576101da610869565b90600052602060002090600202019150819050828160000154111561023e57600284101561020e5750600095945050505050565b6002805461021d908290610852565b8154811061022d5761022d610869565b906000526020600020906002020191505b506001600160a01b03909416600090815260019094016020525050604090912054919050565b6000546040516335d2155560e11b8152620100009091046001600160a01b031690636ba42aaa9061029990339060040161080f565b60206040518083038186803b1580156102b157600080fd5b505afa1580156102c5573d6000803e3d6000fd5b505050506040513d601f19601f820116820180604052508101906102e9919061087f565b6103275760405162461bcd60e51b815260206004820152600a60248201526937b7363ca5b2b2b832b960b11b60448201526064015b60405180910390fd5b8281146103695760405162461bcd60e51b815260206004820152601060248201526f1b195b99dd1a081b9bdd08195d5c585b60821b604482015260640161031e565b600160009054906101000a90046001600160a01b03166001600160a01b031663900cf0cf6040518163ffffffff1660e01b815260040160206040518083038186803b1580156103b757600080fd5b505afa1580156103cb573d6000803e3d6000fd5b505050506040513d601f19601f820116820180604052508101906103ef9190610823565b6103fa9060016108a1565b85146104365760405162461bcd60e51b815260206004820152600b60248201526a0eee4dedcce40cae0dec6d60ab1b604482015260640161031e565b600254158061047757506002805486919061045390600190610852565b8154811061046357610463610869565b906000526020600020906002020160000154105b156104bb57600280546001908101808355600083905287929161049991610852565b815481106104a9576104a9610869565b60009182526020909120600290910201555b60028054600091906104cf90600190610852565b815481106104df576104df610869565b9060005260206000209060020201905060005b8481101561056c5783838281811061050c5761050c610869565b9050602002013582600101600088888581811061052b5761052b610869565b905060200201602081019061054091906106ee565b6001600160a01b0316815260208101919091526040016000205580610564816108b9565b9150506104f2565b507f57b18402e8b8afb750fd605436caa4bffe70a5ef6e9e8882ef56776ee3cbfa6b610599600188610852565b82546040516105b192919089908990899089906108d4565b60405180910390a1505050505050565b600054610100900460ff166105dc5760005460ff16156105e0565b303b155b6106435760405162461bcd60e51b815260206004820152602e60248201527f496e697469616c697a61626c653a20636f6e747261637420697320616c72656160448201526d191e481a5b9a5d1a585b1a5e995960921b606482015260840161031e565b600054610100900460ff16158015610665576000805461ffff19166101011790555b6000805462010000600160b01b031916620100006001600160a01b038681169190910291909117909155600180546001600160a01b03191691841691909117905580156106b8576000805461ff00191690555b505050565b6000602082840312156106cf57600080fd5b5035919050565b6001600160a01b03811681146106eb57600080fd5b50565b60006020828403121561070057600080fd5b813561070b816106d6565b9392505050565b60008083601f84011261072457600080fd5b5081356001600160401b0381111561073b57600080fd5b6020830191508360208260051b850101111561075657600080fd5b9250929050565b60008060008060006060868803121561077557600080fd5b8535945060208601356001600160401b038082111561079357600080fd5b61079f89838a01610712565b909650945060408801359150808211156107b857600080fd5b506107c588828901610712565b969995985093965092949392505050565b600080604083850312156107e957600080fd5b82356107f4816106d6565b91506020830135610804816106d6565b809150509250929050565b6001600160a01b0391909116815260200190565b60006020828403121561083557600080fd5b5051919050565b634e487b7160e01b600052601160045260246000fd5b6000828210156108645761086461083c565b500390565b634e487b7160e01b600052603260045260246000fd5b60006020828403121561089157600080fd5b8151801515811461070b57600080fd5b600082198211156108b4576108b461083c565b500190565b60006000198214156108cd576108cd61083c565b5060010190565b86815260208082018790526080604083018190528201859052600090869060a08401835b8881101561092657833561090b816106d6565b6001600160a01b0316825292820192908201906001016108f8565b5084810360608601528581526001600160fb1b0386111561094657600080fd5b8560051b925082878383013760009201019081529897505050505050505056fea2646970667358221220cd6f237acb2ee1d0bfd39538f687a98652c40b5e82c6f723aa998cff5fe0cdc464736f6c63430008080033",
  "linkReferences": {},
  "deployedLinkReferences": {}
}