{
  "_format": "hh-sol-artifact-1",
  "contractName": "Reference",
  "sourceName": "contracts/Reference.sol",
  "abi": [
    {
      "anonymous": false,
      "inputs": [
        {
          "indexed": false,
          "internalType": "address",
          "name": "user",
          "type": "address"
        },
        {
          "indexed": false,
          "internalType": "bytes32",
          "name": "referCode",
          "type": "bytes32"
        }
      ],
      "name": "RegisterCode",
      "type": "event"
    },
    {
      "inputs": [],
      "name": "access",
      "outputs": [
        {
          "internalType": "contract Access",
          "name": "",
          "type": "address"
        }
      ],
      "stateMutability": "view",
      "type": "function"
    },
    {
      "inputs": [
        {
          "internalType": "contract Access",
          "name": "_access",
          "type": "address"
        }
      ],
      "name": "initialize",
      "outputs": [],
      "stateMutability": "nonpayable",
      "type": "function"
    },
    {
      "inputs": [
        {
          "internalType": "bytes32",
          "name": "",
          "type": "bytes32"
        }
      ],
      "name": "referAddress",
      "outputs": [
        {
          "internalType": "address",
          "name": "",
          "type": "address"
        }
      ],
      "stateMutability": "view",
      "type": "function"
    },
    {
      "inputs": [
        {
          "internalType": "bytes32",
          "name": "code",
          "type": "bytes32"
        }
      ],
      "name": "referInfo",
      "outputs": [
        {
          "internalType": "address",
          "name": "referrer",
          "type": "address"
        },
        {
          "internalType": "bool",
          "name": "isVIP",
          "type": "bool"
        }
      ],
      "stateMutability": "view",
      "type": "function"
    },
    {
      "inputs": [
        {
          "internalType": "address",
          "name": "user",
          "type": "address"
        }
      ],
      "name": "registerCode",
      "outputs": [],
      "stateMutability": "nonpayable",
      "type": "function"
    },
    {
      "inputs": [
        {
          "internalType": "address",
          "name": "vip",
          "type": "address"
        },
        {
          "internalType": "bytes32",
          "name": "vipCode",
          "type": "bytes32"
        }
      ],
      "name": "registerCodeVIP",
      "outputs": [],
      "stateMutability": "nonpayable",
      "type": "function"
    }
  ],
  "bytecode": "0x608060405234801561001057600080fd5b50610637806100206000396000f3fe608060405234801561001057600080fd5b50600436106100625760003560e01c806371907f171461006757806391d3924714610096578063c4d66de8146100ab578063cc5f5c40146100be578063e1186845146100e7578063ec8a79e2146100fa575b600080fd5b600054610080906201000090046001600160a01b031681565b60405161008d91906104f4565b60405180910390f35b6100a96100a4366004610520565b610147565b005b6100a96100b9366004610520565b6102bd565b6100806100cc366004610544565b6001602052600090815260409020546001600160a01b031681565b6100a96100f536600461055d565b610398565b610128610108366004610544565b6000818152600160205260409020546001600160a01b0316919082141590565b604080516001600160a01b03909316835290151560208301520161008d565b600060029054906101000a90046001600160a01b03166001600160a01b031663ca19e44f6040518163ffffffff1660e01b815260040160206040518083038186803b15801561019557600080fd5b505afa1580156101a9573d6000803e3d6000fd5b505050506040513d601f19601f820116820180604052508101906101cd9190610589565b6001600160a01b0316336001600160a01b0316146102215760405162461bcd60e51b815260206004820152600c60248201526b1bdb9b1e515b1a5d1954185960a21b60448201526064015b60405180910390fd5b6001600160a01b03808216600081815260016020526040902054909116158061026457506000818152600160205260409020546001600160a01b03838116911614155b156102b9576000818152600160205260409081902080546001600160a01b0319166001600160a01b038516179055516000805160206105e2833981519152906102b090849084906105a6565b60405180910390a15b5050565b600054610100900460ff166102d85760005460ff16156102dc565b303b155b61033f5760405162461bcd60e51b815260206004820152602e60248201527f496e697469616c697a61626c653a20636f6e747261637420697320616c72656160448201526d191e481a5b9a5d1a585b1a5e995960921b6064820152608401610218565b600054610100900460ff16158015610361576000805461ffff19166101011790555b6000805462010000600160b01b031916620100006001600160a01b0385160217905580156102b9576000805461ff00191690555050565b600054604051630935e01b60e21b8152620100009091046001600160a01b0316906324d7806c906103cd9033906004016104f4565b60206040518083038186803b1580156103e557600080fd5b505afa1580156103f9573d6000803e3d6000fd5b505050506040513d601f19601f8201168201806040525081019061041d91906105bf565b6104555760405162461bcd60e51b815260206004820152600960248201526837b7363ca0b236b4b760b91b6044820152606401610218565b6000818152600160205260409020546001600160a01b0316156104ad5760405162461bcd60e51b815260206004820152601060248201526f1d9a5c10dbd919481a5cc8195e1a5cdd60821b6044820152606401610218565b6000818152600160205260409081902080546001600160a01b0319166001600160a01b038516179055516000805160206105e2833981519152906102b090849084906105a6565b6001600160a01b0391909116815260200190565b6001600160a01b038116811461051d57600080fd5b50565b60006020828403121561053257600080fd5b813561053d81610508565b9392505050565b60006020828403121561055657600080fd5b5035919050565b6000806040838503121561057057600080fd5b823561057b81610508565b946020939093013593505050565b60006020828403121561059b57600080fd5b815161053d81610508565b6001600160a01b03929092168252602082015260400190565b6000602082840312156105d157600080fd5b8151801515811461053d57600080fdfe04f82286a2a3b2ee5c8555de8304dfe2ea70991613213184b73a9e408d2d8029a26469706673582212208eb84dcb8c12a7bbbe0e543a9bf2767eae1590d94fcf8fe12dadba6758a55beb64736f6c63430008080033",
  "linkReferences": {},
  "deployedLinkReferences": {}
}