{
  "_format": "hh-sol-artifact-1",
  "contractName": "RaffleTicket",
  "sourceName": "contracts/RaffleTicket.sol",
  "abi": [
    {
      "anonymous": false,
      "inputs": [
        {
          "indexed": true,
          "internalType": "address",
          "name": "account",
          "type": "address"
        },
        {
          "indexed": true,
          "internalType": "address",
          "name": "operator",
          "type": "address"
        },
        {
          "indexed": false,
          "internalType": "bool",
          "name": "approved",
          "type": "bool"
        }
      ],
      "name": "ApprovalForAll",
      "type": "event"
    },
    {
      "anonymous": false,
      "inputs": [
        {
          "indexed": true,
          "internalType": "address",
          "name": "operator",
          "type": "address"
        },
        {
          "indexed": true,
          "internalType": "address",
          "name": "from",
          "type": "address"
        },
        {
          "indexed": true,
          "internalType": "address",
          "name": "to",
          "type": "address"
        },
        {
          "indexed": false,
          "internalType": "uint256[]",
          "name": "ids",
          "type": "uint256[]"
        },
        {
          "indexed": false,
          "internalType": "uint256[]",
          "name": "values",
          "type": "uint256[]"
        }
      ],
      "name": "TransferBatch",
      "type": "event"
    },
    {
      "anonymous": false,
      "inputs": [
        {
          "indexed": true,
          "internalType": "address",
          "name": "operator",
          "type": "address"
        },
        {
          "indexed": true,
          "internalType": "address",
          "name": "from",
          "type": "address"
        },
        {
          "indexed": true,
          "internalType": "address",
          "name": "to",
          "type": "address"
        },
        {
          "indexed": false,
          "internalType": "uint256",
          "name": "id",
          "type": "uint256"
        },
        {
          "indexed": false,
          "internalType": "uint256",
          "name": "value",
          "type": "uint256"
        }
      ],
      "name": "TransferSingle",
      "type": "event"
    },
    {
      "anonymous": false,
      "inputs": [
        {
          "indexed": false,
          "internalType": "string",
          "name": "value",
          "type": "string"
        },
        {
          "indexed": true,
          "internalType": "uint256",
          "name": "id",
          "type": "uint256"
        }
      ],
      "name": "URI",
      "type": "event"
    },
    {
      "inputs": [],
      "name": "GOLDEN_ID",
      "outputs": [
        {
          "internalType": "uint256",
          "name": "",
          "type": "uint256"
        }
      ],
      "stateMutability": "view",
      "type": "function"
    },
    {
      "inputs": [],
      "name": "access",
      "outputs": [
        {
          "internalType": "contract Access",
          "name": "",
          "type": "address"
        }
      ],
      "stateMutability": "view",
      "type": "function"
    },
    {
      "inputs": [
        {
          "internalType": "address",
          "name": "account",
          "type": "address"
        },
        {
          "internalType": "uint256",
          "name": "id",
          "type": "uint256"
        }
      ],
      "name": "balanceOf",
      "outputs": [
        {
          "internalType": "uint256",
          "name": "",
          "type": "uint256"
        }
      ],
      "stateMutability": "view",
      "type": "function"
    },
    {
      "inputs": [
        {
          "internalType": "address[]",
          "name": "accounts",
          "type": "address[]"
        },
        {
          "internalType": "uint256[]",
          "name": "ids",
          "type": "uint256[]"
        }
      ],
      "name": "balanceOfBatch",
      "outputs": [
        {
          "internalType": "uint256[]",
          "name": "",
          "type": "uint256[]"
        }
      ],
      "stateMutability": "view",
      "type": "function"
    },
    {
      "inputs": [
        {
          "internalType": "address",
          "name": "account",
          "type": "address"
        },
        {
          "internalType": "uint256",
          "name": "id",
          "type": "uint256"
        },
        {
          "internalType": "uint256",
          "name": "value",
          "type": "uint256"
        }
      ],
      "name": "burn",
      "outputs": [],
      "stateMutability": "nonpayable",
      "type": "function"
    },
    {
      "inputs": [
        {
          "internalType": "address",
          "name": "account",
          "type": "address"
        },
        {
          "internalType": "uint256[]",
          "name": "ids",
          "type": "uint256[]"
        },
        {
          "internalType": "uint256[]",
          "name": "values",
          "type": "uint256[]"
        }
      ],
      "name": "burnBatch",
      "outputs": [],
      "stateMutability": "nonpayable",
      "type": "function"
    },
    {
      "inputs": [
        {
          "internalType": "uint256",
          "name": "",
          "type": "uint256"
        }
      ],
      "name": "endEpoch",
      "outputs": [
        {
          "internalType": "uint256",
          "name": "",
          "type": "uint256"
        }
      ],
      "stateMutability": "view",
      "type": "function"
    },
    {
      "inputs": [
        {
          "internalType": "uint256",
          "name": "tokenId",
          "type": "uint256"
        }
      ],
      "name": "epochRange",
      "outputs": [
        {
          "internalType": "uint256",
          "name": "",
          "type": "uint256"
        },
        {
          "internalType": "uint256",
          "name": "",
          "type": "uint256"
        }
      ],
      "stateMutability": "view",
      "type": "function"
    },
    {
      "inputs": [
        {
          "internalType": "uint256",
          "name": "id",
          "type": "uint256"
        }
      ],
      "name": "exists",
      "outputs": [
        {
          "internalType": "bool",
          "name": "",
          "type": "bool"
        }
      ],
      "stateMutability": "view",
      "type": "function"
    },
    {
      "inputs": [
        {
          "internalType": "contract Access",
          "name": "_access",
          "type": "address"
        }
      ],
      "name": "initialize",
      "outputs": [],
      "stateMutability": "nonpayable",
      "type": "function"
    },
    {
      "inputs": [
        {
          "internalType": "address",
          "name": "account",
          "type": "address"
        },
        {
          "internalType": "address",
          "name": "operator",
          "type": "address"
        }
      ],
      "name": "isApprovedForAll",
      "outputs": [
        {
          "internalType": "bool",
          "name": "",
          "type": "bool"
        }
      ],
      "stateMutability": "view",
      "type": "function"
    },
    {
      "inputs": [
        {
          "internalType": "address",
          "name": "to",
          "type": "address"
        },
        {
          "internalType": "uint256",
          "name": "amount",
          "type": "uint256"
        }
      ],
      "name": "mint",
      "outputs": [],
      "stateMutability": "nonpayable",
      "type": "function"
    },
    {
      "inputs": [
        {
          "internalType": "address",
          "name": "to",
          "type": "address"
        },
        {
          "internalType": "uint256",
          "name": "tokenId",
          "type": "uint256"
        },
        {
          "internalType": "uint256",
          "name": "amount",
          "type": "uint256"
        },
        {
          "internalType": "uint256",
          "name": "_endEpoch",
          "type": "uint256"
        }
      ],
      "name": "mint",
      "outputs": [],
      "stateMutability": "nonpayable",
      "type": "function"
    },
    {
      "inputs": [],
      "name": "name",
      "outputs": [
        {
          "internalType": "string",
          "name": "",
          "type": "string"
        }
      ],
      "stateMutability": "view",
      "type": "function"
    },
    {
      "inputs": [
        {
          "internalType": "address",
          "name": "from",
          "type": "address"
        },
        {
          "internalType": "address",
          "name": "to",
          "type": "address"
        },
        {
          "internalType": "uint256[]",
          "name": "ids",
          "type": "uint256[]"
        },
        {
          "internalType": "uint256[]",
          "name": "amounts",
          "type": "uint256[]"
        },
        {
          "internalType": "bytes",
          "name": "data",
          "type": "bytes"
        }
      ],
      "name": "safeBatchTransferFrom",
      "outputs": [],
      "stateMutability": "nonpayable",
      "type": "function"
    },
    {
      "inputs": [
        {
          "internalType": "address",
          "name": "from",
          "type": "address"
        },
        {
          "internalType": "address",
          "name": "to",
          "type": "address"
        },
        {
          "internalType": "uint256",
          "name": "id",
          "type": "uint256"
        },
        {
          "internalType": "uint256",
          "name": "amount",
          "type": "uint256"
        },
        {
          "internalType": "bytes",
          "name": "data",
          "type": "bytes"
        }
      ],
      "name": "safeTransferFrom",
      "outputs": [],
      "stateMutability": "nonpayable",
      "type": "function"
    },
    {
      "inputs": [
        {
          "internalType": "address",
          "name": "operator",
          "type": "address"
        },
        {
          "internalType": "bool",
          "name": "approved",
          "type": "bool"
        }
      ],
      "name": "setApprovalForAll",
      "outputs": [],
      "stateMutability": "nonpayable",
      "type": "function"
    },
    {
      "inputs": [
        {
          "internalType": "string",
          "name": "newuri",
          "type": "string"
        }
      ],
      "name": "setURI",
      "outputs": [],
      "stateMutability": "nonpayable",
      "type": "function"
    },
    {
      "inputs": [
        {
          "internalType": "bytes4",
          "name": "interfaceId",
          "type": "bytes4"
        }
      ],
      "name": "supportsInterface",
      "outputs": [
        {
          "internalType": "bool",
          "name": "",
          "type": "bool"
        }
      ],
      "stateMutability": "view",
      "type": "function"
    },
    {
      "inputs": [],
      "name": "symbol",
      "outputs": [
        {
          "internalType": "string",
          "name": "",
          "type": "string"
        }
      ],
      "stateMutability": "view",
      "type": "function"
    },
    {
      "inputs": [
        {
          "internalType": "uint256",
          "name": "id",
          "type": "uint256"
        }
      ],
      "name": "totalSupply",
      "outputs": [
        {
          "internalType": "uint256",
          "name": "",
          "type": "uint256"
        }
      ],
      "stateMutability": "view",
      "type": "function"
    },
    {
      "inputs": [
        {
          "internalType": "uint256",
          "name": "",
          "type": "uint256"
        }
      ],
      "name": "uri",
      "outputs": [
        {
          "internalType": "string",
          "name": "",
          "type": "string"
        }
      ],
      "stateMutability": "view",
      "type": "function"
    }
  ],
  "bytecode": "0x608060405234801561001057600080fd5b50612450806100206000396000f3fe608060405234801561001057600080fd5b50600436106101115760003560e01c8062fdd58e1461011657806301ffc9a71461013c57806302fe53051461015f57806306fdde03146101745780630e4f380c146101ad5780630e89341c146101dc5780632eb2c2d6146101ef57806340c10f19146102025780634e1273f4146102155780634f558e79146102355780636164e45d146102575780636b20c4541461027757806371907f171461028a57806395d89b41146102aa578063a22cb465146102cf578063a647e8ec146102e2578063afae8776146102f5578063bd85b039146102fd578063c4d66de81461031d578063e985e9c514610330578063f242432a1461036c578063f5298aca1461037f575b600080fd5b6101296101243660046118c6565b610392565b6040519081526020015b60405180910390f35b61014f61014a366004611908565b61042b565b6040519015158152602001610133565b61017261016d36600461192c565b61047d565b005b6101a06040518060400160405280600d81526020016c149859999b1948151a58dad95d609a1b81525081565b60405161013391906119ea565b6101ce6101bb3660046119fd565b600081815260fc60205260409020549091565b604051610133929190611a16565b6101a06101ea3660046119fd565b610578565b6101726101fd366004611b6d565b61060c565b6101726102103660046118c6565b6106a3565b610228610223366004611c1a565b610838565b6040516101339190611d21565b61014f6102433660046119fd565b600090815260c96020526040902054151590565b6101296102653660046119fd565b60fc6020526000908152604090205481565b610172610285366004611d34565b610961565b60fb5461029d906001600160a01b031681565b6040516101339190611da9565b6101a060405180604001604052806006815260200165526166666c6560d01b81525081565b6101726102dd366004611dcb565b6109a9565b6101726102f0366004611e04565b6109b4565b610129600081565b61012961030b3660046119fd565b600090815260c9602052604090205490565b61017261032b366004611e3f565b610afe565b61014f61033e366004611e5c565b6001600160a01b03918216600090815260666020908152604080832093909416825291909152205460ff1690565b61017261037a366004611e8a565b610be6565b61017261038d366004611ef2565b610c2b565b60006001600160a01b0383166104035760405162461bcd60e51b815260206004820152602b60248201527f455243313135353a2062616c616e636520717565727920666f7220746865207a60448201526a65726f206164647265737360a81b60648201526084015b60405180910390fd5b5060009081526065602090815260408083206001600160a01b03949094168352929052205490565b60006001600160e01b03198216636cdb3d1360e11b148061045c57506001600160e01b031982166303a24d0760e21b145b8061047757506301ffc9a760e01b6001600160e01b03198316145b92915050565b60fb54604051630935e01b60e21b81526001600160a01b03909116906324d7806c906104ad903390600401611da9565b60206040518083038186803b1580156104c557600080fd5b505afa1580156104d9573d6000803e3d6000fd5b505050506040513d601f19601f820116820180604052508101906104fd9190611f27565b6105355760405162461bcd60e51b815260206004820152600960248201526837b7363ca0b236b4b760b91b60448201526064016103fa565b61057482828080601f016020809104026020016040519081016040528093929190818152602001838380828437600092019190915250610c6e92505050565b5050565b60606067805461058790611f44565b80601f01602080910402602001604051908101604052809291908181526020018280546105b390611f44565b80156106005780601f106105d557610100808354040283529160200191610600565b820191906000526020600020905b8154815290600101906020018083116105e357829003601f168201915b50505050509050919050565b6001600160a01b0385163314806106285750610628853361033e565b61068f5760405162461bcd60e51b815260206004820152603260248201527f455243313135353a207472616e736665722063616c6c6572206973206e6f74206044820152711bdddb995c881b9bdc88185c1c1c9bdd995960721b60648201526084016103fa565b61069c8585858585610c81565b5050505050565b60fb60009054906101000a90046001600160a01b03166001600160a01b031663ca19e44f6040518163ffffffff1660e01b815260040160206040518083038186803b1580156106f157600080fd5b505afa158015610705573d6000803e3d6000fd5b505050506040513d601f19601f820116820180604052508101906107299190611f7f565b6001600160a01b0316336001600160a01b031614806107c3575060fb54604051630935e01b60e21b81526001600160a01b03909116906324d7806c90610773903390600401611da9565b60206040518083038186803b15801561078b57600080fd5b505afa15801561079f573d6000803e3d6000fd5b505050506040513d601f19601f820116820180604052508101906107c39190611f27565b6107df5760405162461bcd60e51b81526004016103fa90611f9c565b6107fb8260008360405180602001604052806000815250610e1c565b6000805260fc6020526000805160206123fb83398151915254610574576000805260fc6020526000196000805160206123fb833981519152555050565b6060815183511461089d5760405162461bcd60e51b815260206004820152602960248201527f455243313135353a206163636f756e747320616e6420696473206c656e677468604482015268040dad2e6dac2e8c6d60bb1b60648201526084016103fa565b600083516001600160401b038111156108b8576108b8611a24565b6040519080825280602002602001820160405280156108e1578160200160208202803683370190505b50905060005b84518110156109595761092c85828151811061090557610905611fc2565b602002602001015185838151811061091f5761091f611fc2565b6020026020010151610392565b82828151811061093e5761093e611fc2565b602090810291909101015261095281611fee565b90506108e7565b509392505050565b6001600160a01b03831633148061097d575061097d833361033e565b6109995760405162461bcd60e51b81526004016103fa90612009565b6109a4838383610f2a565b505050565b6105743383836110a9565b60fb60009054906101000a90046001600160a01b03166001600160a01b031663ca19e44f6040518163ffffffff1660e01b815260040160206040518083038186803b158015610a0257600080fd5b505afa158015610a16573d6000803e3d6000fd5b505050506040513d601f19601f82011682018060405250810190610a3a9190611f7f565b6001600160a01b0316336001600160a01b031614610a6a5760405162461bcd60e51b81526004016103fa90611f9c565b82610aa95760405162461bcd60e51b815260206004820152600f60248201526e1a5b9d985b1a59081d1bdad95b9259608a1b60448201526064016103fa565b82811015610aec5760405162461bcd60e51b815260206004820152601060248201526f0d2dcecc2d8d2c840cadcc88ae0dec6d60831b60448201526064016103fa565b610af88484848461118a565b50505050565b600054610100900460ff16610b195760005460ff1615610b21565b610b216111cf565b610b845760405162461bcd60e51b815260206004820152602e60248201527f496e697469616c697a61626c653a20636f6e747261637420697320616c72656160448201526d191e481a5b9a5d1a585b1a5e995960921b60648201526084016103fa565b600054610100900460ff16158015610ba6576000805461ffff19166101011790555b610bae6111e0565b610bb66111e0565b60fb80546001600160a01b0319166001600160a01b0384161790558015610574576000805461ff00191690555050565b6001600160a01b038516331480610c025750610c02853361033e565b610c1e5760405162461bcd60e51b81526004016103fa90612009565b61069c858585858561124d565b6001600160a01b038316331480610c475750610c47833361033e565b610c635760405162461bcd60e51b81526004016103fa90612009565b6109a4838383611368565b8051610574906067906020840190611815565b8151835114610ca25760405162461bcd60e51b81526004016103fa90612052565b6001600160a01b038416610cc85760405162461bcd60e51b81526004016103fa9061209a565b33610cd781878787878761145e565b60005b8451811015610dc0576000858281518110610cf757610cf7611fc2565b602002602001015190506000858381518110610d1557610d15611fc2565b60209081029190910181015160008481526065835260408082206001600160a01b038e168352909352919091205490915081811015610d665760405162461bcd60e51b81526004016103fa906120df565b60008381526065602090815260408083206001600160a01b038e8116855292528083208585039055908b16825281208054849290610da5908490612129565b9250508190555050505080610db990611fee565b9050610cda565b50846001600160a01b0316866001600160a01b0316826001600160a01b03166000805160206123bb8339815191528787604051610dfe929190612141565b60405180910390a4610e1481878787878761146c565b505050505050565b6001600160a01b038416610e7c5760405162461bcd60e51b815260206004820152602160248201527f455243313135353a206d696e7420746f20746865207a65726f206164647265736044820152607360f81b60648201526084016103fa565b33610e9c81600087610e8d886115de565b610e96886115de565b8761145e565b60008481526065602090815260408083206001600160a01b038916845290915281208054859290610ece908490612129565b92505081905550846001600160a01b031660006001600160a01b0316826001600160a01b03166000805160206123db8339815191528787604051610f13929190611a16565b60405180910390a461069c81600087878787611629565b6001600160a01b038316610f505760405162461bcd60e51b81526004016103fa9061216f565b8051825114610f715760405162461bcd60e51b81526004016103fa90612052565b6000339050610f948185600086866040518060200160405280600081525061145e565b60005b835181101561105c576000848281518110610fb457610fb4611fc2565b602002602001015190506000848381518110610fd257610fd2611fc2565b60209081029190910181015160008481526065835260408082206001600160a01b038c1683529093529190912054909150818110156110235760405162461bcd60e51b81526004016103fa906121b2565b60009283526065602090815260408085206001600160a01b038b168652909152909220910390558061105481611fee565b915050610f97565b5060006001600160a01b0316846001600160a01b0316826001600160a01b03166000805160206123bb833981519152868660405161109b929190612141565b60405180910390a450505050565b816001600160a01b0316836001600160a01b0316141561111d5760405162461bcd60e51b815260206004820152602960248201527f455243313135353a2073657474696e6720617070726f76616c20737461747573604482015268103337b91039b2b63360b91b60648201526084016103fa565b6001600160a01b03838116600081815260666020908152604080832094871680845294825291829020805460ff191686151590811790915591519182527f17307eab39ab6107e8899845ad3d59bd9653f200f220920489ca2b5937696c31910160405180910390a3505050565b6111a584848460405180602001604052806000815250610e1c565b600083815260fc6020526040902054610af857600083815260fc6020526040902081905550505050565b60006111da306116fa565b15905090565b600054610100900460ff1661124b5760405162461bcd60e51b815260206004820152602b60248201527f496e697469616c697a61626c653a20636f6e7472616374206973206e6f74206960448201526a6e697469616c697a696e6760a81b60648201526084016103fa565b565b6001600160a01b0384166112735760405162461bcd60e51b81526004016103fa9061209a565b33611283818787610e8d886115de565b60008481526065602090815260408083206001600160a01b038a168452909152902054838110156112c65760405162461bcd60e51b81526004016103fa906120df565b60008581526065602090815260408083206001600160a01b038b8116855292528083208785039055908816825281208054869290611305908490612129565b92505081905550856001600160a01b0316876001600160a01b0316836001600160a01b03166000805160206123db8339815191528888604051611349929190611a16565b60405180910390a461135f828888888888611629565b50505050505050565b6001600160a01b03831661138e5760405162461bcd60e51b81526004016103fa9061216f565b336113bd8185600061139f876115de565b6113a8876115de565b6040518060200160405280600081525061145e565b60008381526065602090815260408083206001600160a01b0388168452909152902054828110156114005760405162461bcd60e51b81526004016103fa906121b2565b60008481526065602090815260408083206001600160a01b03808a16808652919093528184208786039055905190918516906000805160206123db8339815191529061144f9089908990611a16565b60405180910390a45050505050565b610e14868686868686611709565b61147e846001600160a01b03166116fa565b15610e145760405163bc197c8160e01b81526001600160a01b0385169063bc197c81906114b790899089908890889088906004016121f6565b602060405180830381600087803b1580156114d157600080fd5b505af1925050508015611501575060408051601f3d908101601f191682019092526114fe91810190612254565b60015b6115ae5761150d612271565b806308c379a01415611547575061152261228d565b8061152d5750611549565b8060405162461bcd60e51b81526004016103fa91906119ea565b505b60405162461bcd60e51b815260206004820152603460248201527f455243313135353a207472616e7366657220746f206e6f6e20455243313135356044820152732932b1b2b4bb32b91034b6b83632b6b2b73a32b960611b60648201526084016103fa565b6001600160e01b0319811663bc197c8160e01b1461135f5760405162461bcd60e51b81526004016103fa90612316565b6040805160018082528183019092526060916000919060208083019080368337019050509050828160008151811061161857611618611fc2565b602090810291909101015292915050565b61163b846001600160a01b03166116fa565b15610e145760405163f23a6e6160e01b81526001600160a01b0385169063f23a6e6190611674908990899088908890889060040161235e565b602060405180830381600087803b15801561168e57600080fd5b505af19250505080156116be575060408051601f3d908101601f191682019092526116bb91810190612254565b60015b6116ca5761150d612271565b6001600160e01b0319811663f23a6e6160e01b1461135f5760405162461bcd60e51b81526004016103fa90612316565b6001600160a01b03163b151590565b6001600160a01b0385166117905760005b835181101561178e5782818151811061173557611735611fc2565b602002602001015160c9600086848151811061175357611753611fc2565b6020026020010151815260200190815260200160002060008282546117789190612129565b90915550611787905081611fee565b905061171a565b505b6001600160a01b038416610e145760005b835181101561135f578281815181106117bc576117bc611fc2565b602002602001015160c960008684815181106117da576117da611fc2565b6020026020010151815260200190815260200160002060008282546117ff91906123a3565b9091555061180e905081611fee565b90506117a1565b82805461182190611f44565b90600052602060002090601f0160209004810192826118435760008555611889565b82601f1061185c57805160ff1916838001178555611889565b82800160010185558215611889579182015b8281111561188957825182559160200191906001019061186e565b50611895929150611899565b5090565b5b80821115611895576000815560010161189a565b6001600160a01b03811681146118c357600080fd5b50565b600080604083850312156118d957600080fd5b82356118e4816118ae565b946020939093013593505050565b6001600160e01b0319811681146118c357600080fd5b60006020828403121561191a57600080fd5b8135611925816118f2565b9392505050565b6000806020838503121561193f57600080fd5b82356001600160401b038082111561195657600080fd5b818501915085601f83011261196a57600080fd5b81358181111561197957600080fd5b86602082850101111561198b57600080fd5b60209290920196919550909350505050565b6000815180845260005b818110156119c3576020818501810151868301820152016119a7565b818111156119d5576000602083870101525b50601f01601f19169290920160200192915050565b602081526000611925602083018461199d565b600060208284031215611a0f57600080fd5b5035919050565b918252602082015260400190565b634e487b7160e01b600052604160045260246000fd5b601f8201601f191681016001600160401b0381118282101715611a5f57611a5f611a24565b6040525050565b60006001600160401b03821115611a7f57611a7f611a24565b5060051b60200190565b600082601f830112611a9a57600080fd5b81356020611aa782611a66565b604051611ab48282611a3a565b83815260059390931b8501820192828101915086841115611ad457600080fd5b8286015b84811015611aef5780358352918301918301611ad8565b509695505050505050565b600082601f830112611b0b57600080fd5b81356001600160401b03811115611b2457611b24611a24565b604051611b3b601f8301601f191660200182611a3a565b818152846020838601011115611b5057600080fd5b816020850160208301376000918101602001919091529392505050565b600080600080600060a08688031215611b8557600080fd5b8535611b90816118ae565b94506020860135611ba0816118ae565b935060408601356001600160401b0380821115611bbc57600080fd5b611bc889838a01611a89565b94506060880135915080821115611bde57600080fd5b611bea89838a01611a89565b93506080880135915080821115611c0057600080fd5b50611c0d88828901611afa565b9150509295509295909350565b60008060408385031215611c2d57600080fd5b82356001600160401b0380821115611c4457600080fd5b818501915085601f830112611c5857600080fd5b81356020611c6582611a66565b604051611c728282611a3a565b83815260059390931b8501820192828101915089841115611c9257600080fd5b948201945b83861015611cb9578535611caa816118ae565b82529482019490820190611c97565b96505086013592505080821115611ccf57600080fd5b50611cdc85828601611a89565b9150509250929050565b600081518084526020808501945080840160005b83811015611d1657815187529582019590820190600101611cfa565b509495945050505050565b6020815260006119256020830184611ce6565b600080600060608486031215611d4957600080fd5b8335611d54816118ae565b925060208401356001600160401b0380821115611d7057600080fd5b611d7c87838801611a89565b93506040860135915080821115611d9257600080fd5b50611d9f86828701611a89565b9150509250925092565b6001600160a01b0391909116815260200190565b80151581146118c357600080fd5b60008060408385031215611dde57600080fd5b8235611de9816118ae565b91506020830135611df981611dbd565b809150509250929050565b60008060008060808587031215611e1a57600080fd5b8435611e25816118ae565b966020860135965060408601359560600135945092505050565b600060208284031215611e5157600080fd5b8135611925816118ae565b60008060408385031215611e6f57600080fd5b8235611e7a816118ae565b91506020830135611df9816118ae565b600080600080600060a08688031215611ea257600080fd5b8535611ead816118ae565b94506020860135611ebd816118ae565b9350604086013592506060860135915060808601356001600160401b03811115611ee657600080fd5b611c0d88828901611afa565b600080600060608486031215611f0757600080fd5b8335611f12816118ae565b95602085013595506040909401359392505050565b600060208284031215611f3957600080fd5b815161192581611dbd565b600181811c90821680611f5857607f821691505b60208210811415611f7957634e487b7160e01b600052602260045260246000fd5b50919050565b600060208284031215611f9157600080fd5b8151611925816118ae565b6020808252600c908201526b1bdb9b1e515b1a5d1954185960a21b604082015260600190565b634e487b7160e01b600052603260045260246000fd5b634e487b7160e01b600052601160045260246000fd5b600060001982141561200257612002611fd8565b5060010190565b60208082526029908201527f455243313135353a2063616c6c6572206973206e6f74206f776e6572206e6f7260408201526808185c1c1c9bdd995960ba1b606082015260800190565b60208082526028908201527f455243313135353a2069647320616e6420616d6f756e7473206c656e677468206040820152670dad2e6dac2e8c6d60c31b606082015260800190565b60208082526025908201527f455243313135353a207472616e7366657220746f20746865207a65726f206164604082015264647265737360d81b606082015260800190565b6020808252602a908201527f455243313135353a20696e73756666696369656e742062616c616e636520666f60408201526939103a3930b739b332b960b11b606082015260800190565b6000821982111561213c5761213c611fd8565b500190565b6040815260006121546040830185611ce6565b82810360208401526121668185611ce6565b95945050505050565b60208082526023908201527f455243313135353a206275726e2066726f6d20746865207a65726f206164647260408201526265737360e81b606082015260800190565b60208082526024908201527f455243313135353a206275726e20616d6f756e7420657863656564732062616c604082015263616e636560e01b606082015260800190565b6001600160a01b0386811682528516602082015260a06040820181905260009061222290830186611ce6565b82810360608401526122348186611ce6565b90508281036080840152612248818561199d565b98975050505050505050565b60006020828403121561226657600080fd5b8151611925816118f2565b600060033d111561228a5760046000803e5060005160e01c5b90565b600060443d101561229b5790565b6040516003193d81016004833e81513d6001600160401b0380831160248401831017156122ca57505050505090565b82850191508151818111156122e25750505050505090565b843d87010160208285010111156122fc5750505050505090565b61230b60208286010187611a3a565b509095945050505050565b60208082526028908201527f455243313135353a204552433131353552656365697665722072656a656374656040820152676420746f6b656e7360c01b606082015260800190565b6001600160a01b03868116825285166020820152604081018490526060810183905260a0608082018190526000906123989083018461199d565b979650505050505050565b6000828210156123b5576123b5611fd8565b50039056fe4a39dc06d4c0dbc64b70af90fd698a233a518aa5d07e595d983b8c0526c8f7fbc3d58168c5ae7397731d063d5bbf3d657854427343f4c083240f7aacaa2d0f623d65bc8af043c3492e2efc328ab30f794c3cc5eba72564adef73ad45ad4ac2eaa2646970667358221220c149f1bac25d55e2ced736cc2ce0e5c950111d00e99ef3ab51d6326093e6ac3564736f6c63430008080033",
  "linkReferences": {},
  "deployedLinkReferences": {}
}